{"abi":[{"type":"constructor","inputs":[],"stateMutability":"nonpayable"},{"type":"function","name":"DEFAULT_ADMIN_ROLE","inputs":[],"outputs":[{"name":"","type":"bytes32","internalType":"bytes32"}],"stateMutability":"view"},{"type":"function","name":"UPGRADE_INTERFACE_VERSION","inputs":[],"outputs":[{"name":"","type":"string","internalType":"string"}],"stateMutability":"view"},{"type":"function","name":"addConditionalSupportedAsset","inputs":[{"name":"asset","type":"address","internalType":"address"},{"name":"oracle","type":"address","internalType":"address"}],"outputs":[],"stateMutability":"nonpayable"},{"type":"function","name":"addMarket","inputs":[{"name":"_conditionAsset","type":"address","internalType":"address"},{"name":"_upConditionPercent","type":"int256","internalType":"int256"},{"name":"_downConditionPercent","type":"int256","internalType":"int256"},{"name":"_resolvesAt","type":"uint256","internalType":"uint256"}],"outputs":[{"name":"marketId","type":"uint256","internalType":"uint256"}],"stateMutability":"nonpayable"},{"type":"function","name":"collectWinnings","inputs":[{"name":"marketId","type":"uint256","internalType":"uint256"}],"outputs":[{"name":"","type":"uint256","internalType":"uint256"}],"stateMutability":"nonpayable"},{"type":"function","name":"getAssetPrice","inputs":[{"name":"asset","type":"address","internalType":"address"}],"outputs":[{"name":"","type":"int256","internalType":"int256"}],"stateMutability":"view"},{"type":"function","name":"getRoleAdmin","inputs":[{"name":"role","type":"bytes32","internalType":"bytes32"}],"outputs":[{"name":"","type":"bytes32","internalType":"bytes32"}],"stateMutability":"view"},{"type":"function","name":"grantRole","inputs":[{"name":"role","type":"bytes32","internalType":"bytes32"},{"name":"account","type":"address","internalType":"address"}],"outputs":[],"stateMutability":"nonpayable"},{"type":"function","name":"hasRole","inputs":[{"name":"role","type":"bytes32","internalType":"bytes32"},{"name":"account","type":"address","internalType":"address"}],"outputs":[{"name":"","type":"bool","internalType":"bool"}],"stateMutability":"view"},{"type":"function","name":"initialize","inputs":[{"name":"_asset","type":"address","internalType":"address"},{"name":"_houseRakePercent","type":"uint256","internalType":"uint256"},{"name":"_houseRakeReceiver","type":"address","internalType":"address"},{"name":"_resolverPercent","type":"uint256","internalType":"uint256"}],"outputs":[],"stateMutability":"nonpayable"},{"type":"function","name":"isConditionalAssetSupported","inputs":[{"name":"asset","type":"address","internalType":"address"}],"outputs":[{"name":"","type":"bool","internalType":"bool"}],"stateMutability":"view"},{"type":"function","name":"owner","inputs":[],"outputs":[{"name":"","type":"address","internalType":"address"}],"stateMutability":"view"},{"type":"function","name":"placeBet","inputs":[{"name":"marketId","type":"uint256","internalType":"uint256"},{"name":"isUpBet","type":"bool","internalType":"bool"},{"name":"amount","type":"uint256","internalType":"uint256"}],"outputs":[{"name":"","type":"bool","internalType":"bool"}],"stateMutability":"nonpayable"},{"type":"function","name":"proxiableUUID","inputs":[],"outputs":[{"name":"","type":"bytes32","internalType":"bytes32"}],"stateMutability":"view"},{"type":"function","name":"renounceOwnership","inputs":[],"outputs":[],"stateMutability":"nonpayable"},{"type":"function","name":"renounceRole","inputs":[{"name":"role","type":"bytes32","internalType":"bytes32"},{"name":"callerConfirmation","type":"address","internalType":"address"}],"outputs":[],"stateMutability":"nonpayable"},{"type":"function","name":"resolveMarket","inputs":[{"name":"marketId","type":"uint256","internalType":"uint256"}],"outputs":[],"stateMutability":"nonpayable"},{"type":"function","name":"revokeRole","inputs":[{"name":"role","type":"bytes32","internalType":"bytes32"},{"name":"account","type":"address","internalType":"address"}],"outputs":[],"stateMutability":"nonpayable"},{"type":"function","name":"supportsInterface","inputs":[{"name":"interfaceId","type":"bytes4","internalType":"bytes4"}],"outputs":[{"name":"","type":"bool","internalType":"bool"}],"stateMutability":"view"},{"type":"function","name":"transferOwnership","inputs":[{"name":"newOwner","type":"address","internalType":"address"}],"outputs":[],"stateMutability":"nonpayable"},{"type":"function","name":"upgradeToAndCall","inputs":[{"name":"newImplementation","type":"address","internalType":"address"},{"name":"data","type":"bytes","internalType":"bytes"}],"outputs":[],"stateMutability":"payable"},{"type":"event","name":"BetPlaced","inputs":[{"name":"marketId","type":"uint256","indexed":true,"internalType":"uint256"},{"name":"better","type":"address","indexed":true,"internalType":"address"},{"name":"isUp","type":"bool","indexed":false,"internalType":"bool"},{"name":"amount","type":"uint256","indexed":false,"internalType":"uint256"}],"anonymous":false},{"type":"event","name":"BetReturned","inputs":[{"name":"marketId","type":"uint256","indexed":true,"internalType":"uint256"},{"name":"who","type":"address","indexed":true,"internalType":"address"},{"name":"amount","type":"uint256","indexed":false,"internalType":"uint256"}],"anonymous":false},{"type":"event","name":"Initialized","inputs":[{"name":"version","type":"uint64","indexed":false,"internalType":"uint64"}],"anonymous":false},{"type":"event","name":"MarketAdded","inputs":[{"name":"id","type":"uint256","indexed":true,"internalType":"uint256"},{"name":"timestamp","type":"uint256","indexed":false,"internalType":"uint256"}],"anonymous":false},{"type":"event","name":"MarketResolved","inputs":[{"name":"id","type":"uint256","indexed":true,"internalType":"uint256"},{"name":"by","type":"address","indexed":true,"internalType":"address"},{"name":"timestamp","type":"uint256","indexed":false,"internalType":"uint256"}],"anonymous":false},{"type":"event","name":"OwnershipTransferred","inputs":[{"name":"previousOwner","type":"address","indexed":true,"internalType":"address"},{"name":"newOwner","type":"address","indexed":true,"internalType":"address"}],"anonymous":false},{"type":"event","name":"RoleAdminChanged","inputs":[{"name":"role","type":"bytes32","indexed":true,"internalType":"bytes32"},{"name":"previousAdminRole","type":"bytes32","indexed":true,"internalType":"bytes32"},{"name":"newAdminRole","type":"bytes32","indexed":true,"internalType":"bytes32"}],"anonymous":false},{"type":"event","name":"RoleGranted","inputs":[{"name":"role","type":"bytes32","indexed":true,"internalType":"bytes32"},{"name":"account","type":"address","indexed":true,"internalType":"address"},{"name":"sender","type":"address","indexed":true,"internalType":"address"}],"anonymous":false},{"type":"event","name":"RoleRevoked","inputs":[{"name":"role","type":"bytes32","indexed":true,"internalType":"bytes32"},{"name":"account","type":"address","indexed":true,"internalType":"address"},{"name":"sender","type":"address","indexed":true,"internalType":"address"}],"anonymous":false},{"type":"event","name":"Upgraded","inputs":[{"name":"implementation","type":"address","indexed":true,"internalType":"address"}],"anonymous":false},{"type":"event","name":"WinningsCollected","inputs":[{"name":"marketId","type":"uint256","indexed":true,"internalType":"uint256"},{"name":"winner","type":"address","indexed":true,"internalType":"address"},{"name":"amount","type":"uint256","indexed":false,"internalType":"uint256"}],"anonymous":false},{"type":"error","name":"AccessControlBadConfirmation","inputs":[]},{"type":"error","name":"AccessControlUnauthorizedAccount","inputs":[{"name":"account","type":"address","internalType":"address"},{"name":"neededRole","type":"bytes32","internalType":"bytes32"}]},{"type":"error","name":"AddressEmptyCode","inputs":[{"name":"target","type":"address","internalType":"address"}]},{"type":"error","name":"ERC1967InvalidImplementation","inputs":[{"name":"implementation","type":"address","internalType":"address"}]},{"type":"error","name":"ERC1967NonPayable","inputs":[]},{"type":"error","name":"FailedCall","inputs":[]},{"type":"error","name":"InvalidInitialization","inputs":[]},{"type":"error","name":"NotInitializing","inputs":[]},{"type":"error","name":"OwnableInvalidOwner","inputs":[{"name":"owner","type":"address","internalType":"address"}]},{"type":"error","name":"OwnableUnauthorizedAccount","inputs":[{"name":"account","type":"address","internalType":"address"}]},{"type":"error","name":"ReentrancyGuardReentrantCall","inputs":[]},{"type":"error","name":"UUPSUnauthorizedCallContext","inputs":[]},{"type":"error","name":"UUPSUnsupportedProxiableUUID","inputs":[{"name":"slot","type":"bytes32","internalType":"bytes32"}]}],"bytecode":{"object":"0x60a06040523461003e5761001161004d565b610019610043565b6140226102c8823960805181818161347c015281816134e10152613688015261402290f35b610049565b60405190565b5f80fd5b6100556100a1565b61005d61019e565b565b60018060a01b031690565b90565b61008161007c6100869261005f565b61006a565b61005f565b90565b6100929061006d565b90565b61009e90610089565b90565b6100aa30610095565b608052565b60401c90565b60ff1690565b6100c76100cc916100af565b6100b5565b90565b6100d990546100bb565b90565b5f0190565b5f1c90565b60018060401b031690565b6100fd610102916100e1565b6100e6565b90565b61010f90546100f1565b90565b60018060401b031690565b5f1b90565b9061013360018060401b039161011d565b9181191691161790565b61015161014c61015692610112565b61006a565b610112565b90565b90565b9061017161016c6101789261013d565b610159565b8254610122565b9055565b61018590610112565b9052565b919061019c905f6020850194019061017c565b565b6101a6610256565b6101b15f82016100cf565b61023a576101c05f8201610105565b6101d86101d260018060401b03610112565b91610112565b036101e1575b50565b6101f4905f60018060401b03910161015c565b60018060401b036102317fc7f505b2f371ae2175ee4913f4499e1f2633a7b5936321eed1cdaeb6115181d291610228610043565b91829182610189565b0390a15f6101de565b5f63f92ee8a960e01b815280610252600482016100dc565b0390fd5b61025e6102b3565b90565b5f90565b90565b90565b61027f61027a61028492610265565b61011d565b610268565b90565b6102b07ff0c57e16840df040f15088dc2f81fe391c3923bec73e23a9662efc9c229c6a0061026b565b90565b6102bb610261565b506102c4610287565b9056fe60806040526004361015610013575b610b90565b61001d5f3561016c565b806301ffc9a7146101675780631a38cac614610162578063248a9ca31461015d5780632f2ff15d1461015857806336568abe14610153578063402edf321461014e5780634f1ef2861461014957806352d1902d146101445780636399d03d1461013f578063715018a61461013a5780638da5cb5b1461013557806391d1485414610130578063a217fddf1461012b578063ad3cb1cc14610126578063b3596f0714610121578063b60b89c81461011c578063c22c57c714610117578063c8b4cf7314610112578063d547741f1461010d578063e24df754146101085763f2fde38b0361000e57610b5d565b610b26565b610aac565b610a73565b6109d5565b61097e565b610949565b6108d1565b6107a0565b61072f565b6106fa565b6106a5565b610672565b61061f565b6105e6565b610482565b610421565b6103ed565b61034c565b6102b0565b6101f8565b60e01c90565b60405190565b5f80fd5b5f80fd5b5f80fd5b63ffffffff60e01b1690565b61019981610184565b036101a057565b5f80fd5b905035906101b182610190565b565b906020828203126101cc576101c9915f016101a4565b90565b61017c565b151590565b6101df906101d1565b9052565b91906101f6905f602085019401906101d6565b565b346102285761022461021361020e3660046101b3565b610b98565b61021b610172565b918291826101e3565b0390f35b610178565b90565b6102398161022d565b0361024057565b5f80fd5b9050359061025182610230565b565b61025c816101d1565b0361026357565b5f80fd5b9050359061027482610253565b565b90916060828403126102ab576102a8610291845f8501610244565b9361029f8160208601610267565b93604001610244565b90565b61017c565b346102e1576102dd6102cc6102c6366004610276565b91611425565b6102d4610172565b918291826101e3565b0390f35b610178565b90565b6102f2816102e6565b036102f957565b5f80fd5b9050359061030a826102e9565b565b9060208282031261032557610322915f016102fd565b90565b61017c565b610333906102e6565b9052565b919061034a905f6020850194019061032a565b565b3461037c5761037861036761036236600461030c565b611485565b61036f610172565b91829182610337565b0390f35b610178565b60018060a01b031690565b61039590610381565b90565b6103a18161038c565b036103a857565b5f80fd5b905035906103b982610398565b565b91906040838203126103e357806103d76103e0925f86016102fd565b936020016103ac565b90565b61017c565b5f0190565b3461041c576104066104003660046103bb565b906114d9565b61040e610172565b80610418816103e8565b0390f35b610178565b346104505761043a6104343660046103bb565b906114e5565b610442610172565b8061044c816103e8565b0390f35b610178565b919060408382031261047d578061047161047a925f86016103ac565b936020016103ac565b90565b61017c565b346104b15761049b610495366004610455565b906117f3565b6104a3610172565b806104ad816103e8565b0390f35b610178565b5f80fd5b5f80fd5b601f801991011690565b634e487b7160e01b5f52604160045260245ffd5b906104e6906104be565b810190811067ffffffffffffffff82111761050057604052565b6104c8565b90610518610511610172565b92836104dc565b565b67ffffffffffffffff8111610538576105346020916104be565b0190565b6104c8565b90825f939282370152565b9092919261055d6105588261051a565b610505565b93818552602085019082840111610579576105779261053d565b565b6104ba565b9080601f8301121561059c5781602061059993359101610548565b90565b6104b6565b9190916040818403126105e1576105ba835f83016103ac565b92602082013567ffffffffffffffff81116105dc576105d9920161057e565b90565b610180565b61017c565b6105fa6105f43660046105a1565b90611828565b610602610172565b8061060c816103e8565b0390f35b5f91031261061a57565b61017c565b3461064f5761062f366004610610565b61064b61063a61189f565b610642610172565b91829182610337565b0390f35b610178565b9060208282031261066d5761066a915f01610244565b90565b61017c565b346106a05761068a610685366004610654565b611c77565b610692610172565b8061069c816103e8565b0390f35b610178565b346106d3576106b5366004610610565b6106bd611ca7565b6106c5610172565b806106cf816103e8565b0390f35b610178565b6106e19061038c565b9052565b91906106f8905f602085019401906106d8565b565b3461072a5761070a366004610610565b610726610715611cb5565b61071d610172565b918291826106e5565b0390f35b610178565b346107605761075c61074b6107453660046103bb565b90611ce9565b610753610172565b918291826101e3565b0390f35b610178565b90565b5f1b90565b61078161077c61078692610765565b610768565b6102e6565b90565b6107925f61076d565b90565b61079d610789565b90565b346107d0576107b0366004610610565b6107cc6107bb610795565b6107c3610172565b91829182610337565b0390f35b610178565b67ffffffffffffffff81116107f3576107ef6020916104be565b0190565b6104c8565b9061080a610805836107d5565b610505565b918252565b5f7f352e302e30000000000000000000000000000000000000000000000000000000910152565b61084060056107f8565b9061084d6020830161080f565b565b610857610836565b90565b61086261084f565b90565b61086d61085a565b90565b5190565b60209181520190565b90825f9392825e0152565b6108a76108b06020936108b59361089e81610870565b93848093610874565b9586910161087d565b6104be565b0190565b6108ce9160208201915f818403910152610888565b90565b34610901576108e1366004610610565b6108fd6108ec610865565b6108f4610172565b918291826108b9565b0390f35b610178565b9060208282031261091f5761091c915f016103ac565b90565b61017c565b90565b61093090610924565b9052565b9190610947905f60208501940190610927565b565b346109795761097561096461095f366004610906565b61201c565b61096c610172565b91829182610934565b0390f35b610178565b346109ae576109aa610999610994366004610906565b61213b565b6109a1610172565b918291826101e3565b0390f35b610178565b6109bc9061022d565b9052565b91906109d3905f602085019401906109b3565b565b34610a0557610a016109f06109eb366004610654565b612787565b6109f8610172565b918291826109c0565b0390f35b610178565b610a1381610924565b03610a1a57565b5f80fd5b90503590610a2b82610a0a565b565b608081830312610a6e57610a43825f83016103ac565b92610a6b610a548460208501610a1e565b93610a628160408601610a1e565b93606001610244565b90565b61017c565b34610aa757610aa3610a92610a89366004610a2d565b92919091612b06565b610a9a610172565b918291826109c0565b0390f35b610178565b34610adb57610ac5610abf3660046103bb565b90612b47565b610acd610172565b80610ad7816103e8565b0390f35b610178565b608081830312610b2157610af6825f83016103ac565b92610b1e610b078460208501610244565b93610b1581604086016103ac565b93606001610244565b90565b61017c565b34610b5857610b42610b39366004610ae0565b929190916130cb565b610b4a610172565b80610b54816103e8565b0390f35b610178565b34610b8b57610b75610b70366004610906565b61313e565b610b7d610172565b80610b87816103e8565b0390f35b610178565b5f80fd5b5f90565b610ba0610b94565b5080610bbb610bb5637965db0b60e01b610184565b91610184565b14908115610bc8575b5090565b610bd29150613149565b5f610bc4565b90610bec939291610be761319b565b6111a8565b90610bf5613227565b565b90565b610c0e610c09610c139261022d565b610bf7565b61022d565b90565b90610c2090610bfa565b5f5260205260405f2090565b90565b5f1c90565b60018060a01b031690565b610c4b610c5091610c2f565b610c34565b90565b610c5d9054610c3f565b90565b610c74610c6f610c7992610765565b610bf7565b610381565b90565b610c8590610c60565b90565b5f7f496e76616c6964206d61726b6574000000000000000000000000000000000000910152565b610cbc600e602092610874565b610cc581610c88565b0190565b610cde9060208101905f818303910152610caf565b90565b15610ce857565b610cf0610172565b62461bcd60e51b815280610d0660048201610cc9565b0390fd5b90565b610d19610d1e91610c2f565b610d0a565b90565b610d2b9054610d0d565b90565b90565b610d45610d40610d4a92610d2e565b610bf7565b61022d565b90565b634e487b7160e01b5f52601160045260245ffd5b610d70610d769193929361022d565b9261022d565b8203918211610d8157565b610d4d565b5f7f42657474696e6720636c6f736564000000000000000000000000000000000000910152565b610dba600e602092610874565b610dc381610d86565b0190565b610ddc9060208101905f818303910152610dad565b90565b15610de657565b610dee610172565b62461bcd60e51b815280610e0460048201610dc7565b0390fd5b610e1c610e17610e2192610765565b610bf7565b61022d565b90565b5f7f496e76616c69642062657420616d6f756e740000000000000000000000000000910152565b610e586012602092610874565b610e6181610e24565b0190565b610e7a9060208101905f818303910152610e4b565b90565b15610e8457565b610e8c610172565b62461bcd60e51b815280610ea260048201610e65565b0390fd5b60ff1690565b610eb8610ebd91610c2f565b610ea6565b90565b610eca9054610eac565b90565b5f7f4d61726b6574207265736f6c7665640000000000000000000000000000000000910152565b610f01600f602092610874565b610f0a81610ecd565b0190565b610f239060208101905f818303910152610ef4565b90565b15610f2d57565b610f35610172565b62461bcd60e51b815280610f4b60048201610f0e565b0390fd5b610f63610f5e610f6892610381565b610bf7565b610381565b90565b610f7490610f4f565b90565b610f8090610f6b565b90565b610f8c90610f4f565b90565b610f9890610f83565b90565b610fa490610f83565b90565b60e01b90565b90505190610fba82610253565b565b90602082820312610fd557610fd2915f01610fad565b90565b61017c565b60409061100361100a9496959396610ff960608401985f8501906106d8565b60208301906106d8565b01906109b3565b565b611014610172565b3d5f823e3d90fd5b61102b6110319193929361022d565b9261022d565b820180921161103c57565b610d4d565b9061104d5f1991610768565b9181191691161790565b90565b9061106f61106a61107692610bfa565b611057565b8254611041565b9055565b61108e6110896110939261022d565b610bf7565b610924565b90565b61109f90610f83565b90565b906110ac90611096565b5f5260205260405f2090565b90565b6110c76110cc91610c2f565b6110b8565b90565b6110d990546110bb565b90565b6110eb6110f191939293610924565b92610924565b91828103925f82851281831216928513911215161761110c57565b610d4d565b61112561112061112a92610924565b610bf7565b610924565b90565b90565b9061114561114061114c92611111565b61112d565b8254611041565b9055565b61115f61116591939293610924565b92610924565b808301925f8285121581831216928512911215161761118057565b610d4d565b9160206111a692949361119f60408201965f8301906101d6565b01906109b3565b565b506111b1613244565b61128761128261127d5f6111d16111cc600587018890610c16565b610c2c565b946112026111e160048801610c53565b6111fb6111f56111f086610c7c565b61038c565b9161038c565b1415610ce1565b61123e4261123861123261122d61121b60028c01610d21565b61122762015180610d31565b90610d61565b61022d565b9161022d565b10610ddf565b61125a8961125461124e85610e08565b9161022d565b11610e7d565b61127761127261126c60038901610ec0565b156101d1565b610f26565b01610c53565b610f77565b610f8f565b60206323b872dd91611297613268565b906112be5f6112a530610f9b565b956112c98b6112b2610172565b98899788968795610fa7565b855260048501610fda565b03925af18015611420576113f4575b50825f146113955761133a90611304856112fe60068401916112f983610d21565b61101c565b9061105a565b611334611325600b6113158861107a565b930161131f613268565b906110a2565b9161132f836110cf565b611150565b90611130565b5b611343613268565b91926113786113727f4af71b021e799c62c158bd54636ca8da2fa26115a21a2dc6efe486ec104fd15f93610bfa565b93611096565b9361138d611384610172565b92839283611185565b0390a3600190565b6113ef906113b9856113b360078401916113ae83610d21565b61101c565b9061105a565b6113e96113da600b6113ca8861107a565b93016113d4613268565b906110a2565b916113e4836110cf565b6110dc565b90611130565b61133b565b6114149060203d8111611419575b61140c81836104dc565b810190610fbc565b6112d8565b503d611402565b61100c565b906114389291611433610b94565b610bd8565b90565b5f90565b611448906102e6565b90565b906114559061143f565b5f5260205260405f2090565b90565b61147061147591610c2f565b611461565b90565b6114829054611464565b90565b60016114a66114ac9261149661143b565b505f6114a0613275565b0161144b565b01611478565b90565b906114ca916114c56114c082611485565b613299565b6114cc565b565b906114d6916132ad565b50565b906114e3916114af565b565b90806115006114fa6114f5613268565b61038c565b9161038c565b036115115761150e91613364565b50565b5f63334bd91960e11b815280611529600482016103e8565b0390fd5b9061153f9161153a613411565b611767565b565b5f7f496e76616c696420617373657400000000000000000000000000000000000000910152565b611575600d602092610874565b61157e81611541565b0190565b6115979060208101905f818303910152611568565b90565b156115a157565b6115a9610172565b62461bcd60e51b8152806115bf60048201611582565b0390fd5b5f7f496e76616c6964206f7261636c65000000000000000000000000000000000000910152565b6115f7600e602092610874565b611600816115c3565b0190565b6116199060208101905f8183039101526115ea565b90565b1561162357565b61162b610172565b62461bcd60e51b81528061164160048201611604565b0390fd5b61164f6040610505565b90565b9061165c906101d1565b9052565b9061166a9061038c565b9052565b9061167890611096565b5f5260205260405f2090565b61168e90516101d1565b90565b9061169d60ff91610768565b9181191691161790565b6116b0906101d1565b90565b90565b906116cb6116c66116d2926116a7565b6116b3565b8254611691565b9055565b6116e0905161038c565b90565b60081b90565b906116fc610100600160a81b03916116e3565b9181191691161790565b90565b9061171e61171961172592611096565b611706565b82546116e9565b9055565b9061175360205f6117599461174b828201611745848801611684565b906116b6565b0192016116d6565b90611709565b565b9061176591611729565b565b906117ec6117f1926117948161178d6117876117825f610c7c565b61038c565b9161038c565b141561159a565b6117b9836117b26117ac6117a75f610c7c565b61038c565b9161038c565b141561161c565b6117dc6001936117d36117ca611645565b955f8701611652565b60208501611660565b60066117e6613244565b0161166e565b61175b565b565b906117fd9161152d565b565b906118119161180c61346b565b611813565b565b90611826916118218161351d565b613579565b565b90611832916117ff565b565b61184590611840613677565b611893565b90565b90565b61185f61185a61186492611848565b610768565b6102e6565b90565b6118907f360894a13ba1a3210667c828492db98dca3e2076cc3735a920a3ca505d382bbc61184b565b90565b5061189c611867565b90565b6118af6118aa61143b565b611834565b90565b6118c3906118be61319b565b611a4d565b6118cb613227565b565b5f7f416c7265616479207265736f6c76656400000000000000000000000000000000910152565b6119016010602092610874565b61190a816118cd565b0190565b6119239060208101905f8183039101526118f4565b90565b1561192d57565b611935610172565b62461bcd60e51b81528061194b6004820161190e565b0390fd5b5f7f546f6f206561726c7920746f207265736f6c7665000000000000000000000000910152565b6119836014602092610874565b61198c8161194f565b0190565b6119a59060208101905f818303910152611976565b90565b156119af57565b6119b7610172565b62461bcd60e51b8152806119cd60048201611990565b0390fd5b6119da90610924565b600160ff1b81146119ea575f0390565b610d4d565b906119fc61ff00916116e3565b9181191691161790565b90611a1b611a16611a22926116a7565b6116b3565b82546119ef565b9055565b60081c90565b611a38611a3d91611a26565b610ea6565b90565b611a4a9054611a2c565b90565b611baa611a6d611a686005611a60613244565b018490610c16565b610c2c565b611a8a611a85611a7f60038401610ec0565b156101d1565b611926565b611ab242611aab611aa5611aa060028601610d21565b61022d565b9161022d565b10156119a8565b611ae2611ac160048301610c53565b611adb611ad5611ad05f610c7c565b61038c565b9161038c565b1415610ce1565b611b66611b0c611afc611af760048501610c53565b61201c565b611b075f85016110cf565b6137f8565b611b3781611b2d611b27611b22600588016110cf565b610924565b91610924565b13600885016116b6565b611b5c611b56611b51611b4c600587016110cf565b6119d1565b610924565b91610924565b1260088301611a06565b611b7260088201610ec0565b8015611c65575b611c01575b611b8c6001600383016116b6565b611ba0611b97613268565b60038301611709565b600242910161105a565b611bb2613268565b4291611bfc611bea611be47facef513e023ec1abbd3ca7f9f777a61f3806bf0118d30302223ef3a4c9afb28493610bfa565b93611096565b93611bf3610172565b918291826109c0565b0390a3565b611c0d60088201610ec0565b5f14611c4e57611c49611c40611c2560078401610d21565b5b611c3b611c3282613863565b6009860161105a565b613955565b600a830161105a565b611b7e565b611c49611c40611c6060068401610d21565b611c26565b50611c7260088201611a40565b611b79565b611c80906118b2565b565b611c8a613411565b611c92611c94565b565b611ca5611ca05f610c7c565b613a4a565b565b611caf611c82565b565b5f90565b611cbd611cb1565b50611cd05f611cca613ab6565b01610c53565b90565b90611cdd90611096565b5f5260205260405f2090565b611d18915f611d0d611d1393611cfd610b94565b5082611d07613275565b0161144b565b01611cd3565b610ec0565b90565b5f90565b611d2b611d3091611a26565b610c34565b90565b611d3d9054611d1f565b90565b611d4a6040610505565b90565b90611d83611d7a5f611d5d611d40565b94611d74611d6c838301610ec0565b838801611652565b01611d33565b60208401611660565b565b611d8e90611d4d565b90565b5f7f556e737570706f72746564206173736574000000000000000000000000000000910152565b611dc56011602092610874565b611dce81611d91565b0190565b611de79060208101905f818303910152611db8565b90565b15611df157565b611df9610172565b62461bcd60e51b815280611e0f60048201611dd2565b0390fd5b611e1c90610f4f565b90565b611e2890611e13565b90565b611e3490610f83565b90565b69ffffffffffffffffffff1690565b611e4f81611e37565b03611e5657565b5f80fd5b90505190611e6782611e46565b565b90505190611e7682610a0a565b565b90505190611e8582610230565b565b919060a083820312611ed857611e9f815f8501611e5a565b92611ead8260208301611e69565b92611ed5611ebe8460408501611e78565b93611ecc8160608601611e78565b93608001611e5a565b90565b61017c565b611ef1611eec611ef692610765565b610bf7565b610924565b90565b5f7f496e76616c696420707269636500000000000000000000000000000000000000910152565b611f2d600d602092610874565b611f3681611ef9565b0190565b611f4f9060208101905f818303910152611f20565b90565b15611f5957565b611f61610172565b62461bcd60e51b815280611f7760048201611f3a565b0390fd5b90565b611f92611f8d611f9792611f7b565b610bf7565b61022d565b90565b5f7f5374616c65207072696365000000000000000000000000000000000000000000910152565b611fce600b602092610874565b611fd781611f9a565b0190565b611ff09060208101905f818303910152611fc1565b90565b15611ffa57565b612002610172565b62461bcd60e51b81528061201860048201611fdb565b0390fd5b60a061207461206f61206a602061205161204c61208a9761203b611d1b565b506006612046613244565b0161166e565b611d85565b61206461205f5f8301611684565b611dea565b016116d6565b611e1f565b611e2b565b63feaf968c90612082610172565b938492610fa7565b8252818061209a600482016103e8565b03915afa8015612136575f80808094925050916120fa575b506120dd6120f791926120d7846120d16120cb5f611edd565b91610924565b13611f52565b42610d61565b6120f16120eb611c20611f7e565b9161022d565b10611ff3565b90565b6120dd92506120f791506121249060a03d811161212f575b61211c81836104dc565b810190611e87565b5094505091506120b2565b503d612112565b61100c565b5f61215c6121629261214b610b94565b506006612156613244565b0161166e565b01610ec0565b90565b5f90565b9061217b9161217661319b565b612334565b90612184613227565b565b5f7f4d61726b6574206e6f74207265736f6c76656400000000000000000000000000910152565b6121ba6013602092610874565b6121c381612186565b0190565b6121dc9060208101905f8183039101526121ad565b90565b156121e657565b6121ee610172565b62461bcd60e51b815280612204600482016121c7565b0390fd5b5f7f4e6f206265747320706c61636564000000000000000000000000000000000000910152565b61223c600e602092610874565b61224581612208565b0190565b61225e9060208101905f81830391015261222f565b90565b1561226857565b612270610172565b62461bcd60e51b81528061228660048201612249565b0390fd5b61229e6122996122a392610924565b610bf7565b61022d565b90565b9160206122c79294936122c060408201965f8301906106d8565b01906109b3565b565b6122d86122de9193929361022d565b9261022d565b916122ea83820261022d565b9281840414901517156122f957565b610d4d565b634e487b7160e01b5f52601260045260245ffd5b61231e6123249161022d565b9161022d565b90811561232f570490565b6122fe565b5061233d613244565b9061235461234f600584018390610c16565b610c2c565b9161236961236460038501610ec0565b6121df565b6123a2612389612384600b860161237e613268565b906110a2565b6110cf565b61239b6123955f611edd565b91610924565b1415612261565b6123ae60088401610ec0565b80612751575b6123c060088501611a40565b80612716575b6123d19091156101d1565b9081612705575b506125c4576124c26124bd5f6124c7936123f460088801610ec0565b82146125ad576124b761249361240c60068a01610d21565b5b61241960088b01610ec0565b85146125995761248e61242e60078c01610d21565b5b6124888c612482600a61247b61246861246361245e612459600b8801612453613268565b906110a2565b6110cf565b613ada565b61228a565b9561247560098601610d21565b90610d61565b9201610d21565b90610d61565b906122c9565b612312565b976124b2600b6124a286611edd565b92016124ac613268565b906110a2565b611130565b01610c53565b610f77565b610f8f565b602063a9059cbb916124d7613268565b906124f55f87956125006124e9610172565b97889687958694610fa7565b8452600484016122a6565b03925af1801561259457612568575b50612518613268565b829161256261255061254a7fbeb83c766f929cd13ff8dd36bf2edc610ee368ba90d3613e2dded0e6d99f92e293610bfa565b93611096565b93612559610172565b918291826109c0565b0390a390565b6125889060203d811161258d575b61258081836104dc565b810190610fbc565b61250f565b503d612576565b61100c565b61248e6125a860068c01610d21565b61242f565b6124b76124936125bf60078a01610d21565b61240d565b61262e6126295f612633936126236125ff6125fa6125f56125f0600b8c016125ea613268565b906110a2565b6110cf565b613ada565b61228a565b9761261e600b61260e86611edd565b9201612618613268565b906110a2565b611130565b01610c53565b610f77565b610f8f565b602063a9059cbb91612643613268565b906126615f879561266c612655610172565b97889687958694610fa7565b8452600484016122a6565b03925af18015612700576126d4575b50612684613268565b82916126ce6126bc6126b67f757db202439744d74cb7a1a6abc7549f4a49e7efba6f870c33e2bf48ef343cb393610bfa565b93611096565b936126c5610172565b918291826109c0565b0390a390565b6126f49060203d81116126f9575b6126ec81836104dc565b810190610fbc565b61267b565b503d6126e2565b61100c565b6127109150156101d1565b5f6123d8565b506123d1612737612732600b870161272c613268565b906110a2565b6110cf565b6127496127435f611edd565b91610924565b1290506123c6565b5061276f61276a600b8501612764613268565b906110a2565b6110cf565b61278161277b5f611edd565b91610924565b136123b4565b61279890612793612165565b612169565b90565b906127b0949392916127ab61319b565b6129b7565b906127b9613227565b565b90565b6127d26127cd6127d7926127bb565b610bf7565b610924565b90565b5f7f557020636f6e646974696f6e20746f6f206c6f77000000000000000000000000910152565b61280e6014602092610874565b612817816127da565b0190565b6128309060208101905f818303910152612801565b90565b1561283a57565b612842610172565b62461bcd60e51b8152806128586004820161281b565b0390fd5b5f7f446f776e20636f6e646974696f6e20746f6f206c6f7700000000000000000000910152565b6128906016602092610874565b6128998161285c565b0190565b6128b29060208101905f818303910152612883565b90565b156128bc57565b6128c4610172565b62461bcd60e51b8152806128da6004820161289d565b0390fd5b5f7f5265736f6c7574696f6e20746f6f20736f6f6e00000000000000000000000000910152565b6129126013602092610874565b61291b816128de565b0190565b6129349060208101905f818303910152612905565b90565b1561293e57565b612946610172565b62461bcd60e51b81528061295c6004820161291f565b0390fd5b6129699061022d565b5f1981146129775760010190565b610d4d565b9061298d60018060a01b0391610768565b9181191691161790565b906129ac6129a76129b392611096565b611706565b825461297c565b9055565b91612a0d612abe9460059394506129d56129d08661213b565b611dea565b6129f3836129ec6129e660646127be565b91610924565b1215612833565b612a06612a0060646127be565b91610924565b12156128b5565b612a3e85612a38612a32612a2d42612a2762015180610d31565b9061101c565b61022d565b9161022d565b11612937565b612ab7612a49613244565b95612aa160018801612a6d612a5d82610d21565b91612a6783612960565b9061105a565b97612a99612a8f612a8a88612a818b61201c565b94018c90610c16565b610c2c565b9760048901612997565b5f8701611130565b612aae426001870161105a565b6002850161105a565b9101611130565b804290612b00612aee7fb5b9f12f559f8d5c9b50e5480dc62372c96159810e7e5293896b6f0a13b7cb7892610bfa565b92612af7610172565b918291826109c0565b0390a290565b90612b1a939291612b15612165565b61279b565b90565b90612b3891612b33612b2e82611485565b613299565b612b3a565b565b90612b4491613364565b50565b90612b5191612b1d565b565b60401c90565b612b65612b6a91612b53565b610ea6565b90565b612b779054612b59565b90565b67ffffffffffffffff1690565b612b93612b9891610c2f565b612b7a565b90565b612ba59054612b87565b90565b67ffffffffffffffff1690565b612bc9612bc4612bce92610765565b610bf7565b612ba8565b90565b90565b612be8612be3612bed92612bd1565b610bf7565b612ba8565b90565b612bf990610f83565b90565b90612c0f67ffffffffffffffff91610768565b9181191691161790565b612c2d612c28612c3292612ba8565b610bf7565b612ba8565b90565b90565b90612c4d612c48612c5492612c19565b612c35565b8254612bfc565b9055565b60401b90565b90612c7268ff000000000000000091612c58565b9181191691161790565b90612c91612c8c612c98926116a7565b6116b3565b8254612c5e565b9055565b612ca590612bd4565b9052565b9190612cbc905f60208501940190612c9c565b565b909192612cc9613b10565b93612cde612cd85f8701612b6d565b156101d1565b93612cea5f8701612b9b565b80612cfd612cf75f612bb5565b91612ba8565b1480612e17575b90612d18612d126001612bd4565b91612ba8565b1480612def575b612d2a9091156101d1565b9081612dde575b50612dc257612d5a93612d4f612d476001612bd4565b5f8901612c38565b85612db0575b612fc3565b612d62575b50565b612d6f905f809101612c7c565b6001612da77fc7f505b2f371ae2175ee4913f4499e1f2633a7b5936321eed1cdaeb6115181d291612d9e610172565b91829182612ca9565b0390a15f612d5f565b612dbd60015f8901612c7c565b612d55565b5f63f92ee8a960e01b815280612dda600482016103e8565b0390fd5b612de99150156101d1565b5f612d31565b50612d2a612dfc30612bf0565b3b612e0f612e095f610e08565b9161022d565b149050612d1f565b5085612d04565b5f7f496e76616c696420726563656976657200000000000000000000000000000000910152565b612e526010602092610874565b612e5b81612e1e565b0190565b612e749060208101905f818303910152612e45565b90565b15612e7e57565b612e86610172565b62461bcd60e51b815280612e9c60048201612e5f565b0390fd5b90565b612eb7612eb2612ebc92612ea0565b610bf7565b61022d565b90565b5f7f486f7573652072616b6520746f6f206869676800000000000000000000000000910152565b612ef36013602092610874565b612efc81612ebf565b0190565b612f159060208101905f818303910152612ee6565b90565b15612f1f57565b612f27610172565b62461bcd60e51b815280612f3d60048201612f00565b0390fd5b5f7f5265736f6c7665722063757420746f6f20686967680000000000000000000000910152565b612f756015602092610874565b612f7e81612f41565b0190565b612f979060208101905f818303910152612f68565b90565b15612fa157565b612fa9610172565b62461bcd60e51b815280612fbf60048201612f82565b0390fd5b91926130a86130af9461309f600494612ff787612ff0612fea612fe55f610c7c565b61038c565b9161038c565b141561159a565b61301c8361301561300f61300a5f610c7c565b61038c565b9161038c565b1415612e77565b61303b8161303461302e6103e8612ea3565b9161022d565b1115612f18565b61305a8561305361304d6103e8612ea3565b9161022d565b1115612f9a565b613062613b37565b61307261306d613268565b613b5f565b61307a613b74565b613082613b88565b61309661308d613244565b975f8901612997565b6002870161105a565b60038501612997565b910161105a565b6130c86130ba610789565b6130c2613268565b906132ad565b50565b906130d7939291612cbe565b565b6130ea906130e5613411565b6130ec565b565b806131076131016130fc5f610c7c565b61038c565b9161038c565b146131175761311590613a4a565b565b61313a6131235f610c7c565b5f918291631e4fbdf760e01b8352600483016106e5565b0390fd5b613147906130d9565b565b613151610b94565b5061316b6131656301ffc9a760e01b610184565b91610184565b1490565b90565b61318661318161318b9261316f565b610bf7565b61022d565b90565b6131986002613172565b90565b6131a3613b92565b6131ae5f8201610d21565b6131c76131c16131bc61318e565b61022d565b9161022d565b146131e2576131e0905f6131d961318e565b910161105a565b565b5f633ee5aeb560e01b8152806131fa600482016103e8565b0390fd5b61321261320d61321792612bd1565b610bf7565b61022d565b90565b61322460016131fe565b90565b613242613232613b92565b5f61323b61321a565b910161105a565b565b7f078b9a5a10e60aff8f55e9477cc53791735a7ce2b851408e1eb5a144966fb30090565b613270611cb1565b503390565b7f02dd7bc7dec4dceedda775e58dd541e08a116c6c53815c0bd028192f7b62680090565b6132ab906132a5613268565b90613bd9565b565b6132b5610b94565b506132be613275565b6132d26132cc838590611ce9565b156101d1565b5f1461335d576132fc906132f75f6132ef8160019401869061144b565b018590611cd3565b6116b6565b90613305613268565b9061334261333c6133367f2f8788117e7eff1d82e926ec794901d17c78024a50270940304540a733656f0d9561143f565b92611096565b92611096565b9261334b610172565b80613355816103e8565b0390a4600190565b5050505f90565b61336c610b94565b50613375613275565b613380828490611ce9565b5f1461340a576133a9906133a45f61339c81809401869061144b565b018590611cd3565b6116b6565b906133b2613268565b906133ef6133e96133e37ff6391f5c32d9c69d2a47ea670b442974b53935d1edc7fd64eb21e047a839171b9561143f565b92611096565b92611096565b926133f8610172565b80613402816103e8565b0390a4600190565b5050505f90565b613419611cb5565b61343261342c613427613268565b61038c565b9161038c565b0361343957565b61345b613444613268565b5f91829163118cdaa760e01b8352600483016106e5565b0390fd5b61346890610f83565b90565b6134743061345f565b6134a66134a07f000000000000000000000000000000000000000000000000000000000000000061038c565b9161038c565b1480156134d0575b6134b457565b5f63703e46dd60e11b8152806134cc600482016103e8565b0390fd5b506134d9613c14565b61350b6135057f000000000000000000000000000000000000000000000000000000000000000061038c565b9161038c565b14156134ae565b5061351b613411565b565b61352690613512565b565b61353190610f4f565b90565b61353d90613528565b90565b61354990610f83565b90565b90505190613559826102e9565b565b9060208282031261357457613571915f0161354c565b90565b61017c565b91906135a7602061359161358c86613534565b613540565b6352d1902d9061359f610172565b938492610fa7565b825281806135b7600482016103e8565b03915afa80915f92613647575b50155f146135f85750509060016135d957505b565b6135f4905f918291634c9c8ce360e01b8352600483016106e5565b0390fd5b928361361361360d613608611867565b6102e6565b916102e6565b0361362857613623929350613c3e565b6135d7565b613643845f918291632a87526960e21b835260048301610337565b0390fd5b61366991925060203d8111613670575b61366181836104dc565b81019061355b565b905f6135c4565b503d613657565b6136803061345f565b6136b26136ac7f000000000000000000000000000000000000000000000000000000000000000061038c565b9161038c565b036136b957565b5f63703e46dd60e11b8152806136d1600482016103e8565b0390fd5b5f7f496e76616c6964206f726967696e616c20707269636500000000000000000000910152565b6137096016602092610874565b613712816136d5565b0190565b61372b9060208101905f8183039101526136fc565b90565b1561373557565b61373d610172565b62461bcd60e51b81528061375360048201613716565b0390fd5b90565b61376e61376961377392613757565b610bf7565b610924565b90565b61378561378b91939293610924565b92610924565b91613797838202610924565b92600160ff1b81145f8312166137ba5781840514901517156137b557565b610d4d565b610d4d565b6137cb6137d191610924565b91610924565b9081156137f35760015f038214600160ff1b8214166137ee570590565b610d4d565b6122fe565b61383f61382e6138449361380a611d1b565b506138278461382161381b5f611edd565b91610924565b1361372e565b83906110dc565b61383961271061375a565b90613776565b6137bf565b90565b61385b61385661386092613757565b610bf7565b61022d565b90565b61386b612165565b5061389e61388d61387a613244565b9261388760048501610d21565b906122c9565b613898612710613847565b90612312565b90816138b26138ac5f610e08565b9161022d565b116138bc575b5090565b6138d26138cd5f6138d79301610c53565b610f77565b610f8f565b602063a9059cbb916138e7613268565b906139055f86956139106138f9610172565b97889687958694610fa7565b8452600484016122a6565b03925af1801561395057613924575b6138b8565b6139449060203d8111613949575b61393c81836104dc565b810190610fbc565b61391f565b503d613932565b61100c565b61395d612165565b5061399061397f61396c613244565b9261397960028501610d21565b906122c9565b61398a612710613847565b90612312565b90816139a461399e5f610e08565b9161022d565b116139ae575b5090565b60206139cb6139c66139c15f8501610c53565b610f77565b610f8f565b6139dc600363a9059cbb9401610c53565b906139fa5f8695613a056139ee610172565b97889687958694610fa7565b8452600484016122a6565b03925af18015613a4557613a19575b6139aa565b613a399060203d8111613a3e575b613a3181836104dc565b810190610fbc565b613a14565b503d613a27565b61100c565b613a52613ab6565b613a6a613a605f8301610c53565b915f849101612997565b90613a9e613a987f8be0079c531659141344cd1fd0a4f28419497f9722a3daafe3b4186f6b6457e093611096565b91611096565b91613aa7610172565b80613ab1816103e8565b0390a3565b7f9016d09d72d40fdae2fd8ceac6b6234c7706214fd39c1cd1e609a0528c19930090565b613ae2611d1b565b5080613af6613af05f611edd565b91610924565b12155f14613b02575b90565b613b0b906119d1565b613aff565b613b18613d12565b90565b613b23613d26565b613b2b613b2d565b565b613b35613d88565b565b613b3f613b1b565b565b613b5290613b4d613d26565b613b54565b565b613b5d90613df7565b565b613b6890613b41565b565b613b72613d26565b565b613b7c613b6a565b565b613b86613d26565b565b613b90613b7e565b565b7f9b779b17422d0df92223018b32b4d1fa46e071723d6817e2486d003becc55f0090565b916020613bd7929493613bd060408201965f8301906106d8565b019061032a565b565b90613bee613be8838390611ce9565b156101d1565b613bf6575050565b613c105f92839263e2517d3f60e01b845260048401613bb6565b0390fd5b613c1c611cb1565b50613c375f613c31613c2c611867565b613e02565b01610c53565b90565b5190565b90613c4882613e05565b81613c737fbc7cd75a20ee27fd9adebab32041f755214dbc6bffa90cc0225b39da2e5c2d3b91611096565b90613c7c610172565b80613c86816103e8565b0390a2613c9281613c3a565b613ca4613c9e5f610e08565b9161022d565b115f14613cb857613cb491613ed5565b505b565b5050613cc2613e5a565b613cb6565b90565b613cde613cd9613ce392613cc7565b610768565b6102e6565b90565b613d0f7ff0c57e16840df040f15088dc2f81fe391c3923bec73e23a9662efc9c229c6a00613cca565b90565b613d1a61143b565b50613d23613ce6565b90565b613d37613d31613f04565b156101d1565b613d3d57565b5f631afcd79f60e31b815280613d55600482016103e8565b0390fd5b613d61613d26565b613d69613d6b565b565b613d86613d76613b92565b5f613d7f61321a565b910161105a565b565b613d90613d59565b565b613da390613d9e613d26565b613da5565b565b80613dc0613dba613db55f610c7c565b61038c565b9161038c565b14613dd057613dce90613a4a565b565b613df3613ddc5f610c7c565b5f918291631e4fbdf760e01b8352600483016106e5565b0390fd5b613e0090613d92565b565b90565b803b613e19613e135f610e08565b9161022d565b14613e3b57613e39905f613e33613e2e611867565b613e02565b01612997565b565b613e56905f918291634c9c8ce360e01b8352600483016106e5565b0390fd5b34613e6d613e675f610e08565b9161022d565b11613e7457565b5f63b398979f60e01b815280613e8c600482016103e8565b0390fd5b606090565b90613ea7613ea28361051a565b610505565b918252565b3d5f14613ec757613ebc3d613e95565b903d5f602084013e5b565b613ecf613e90565b90613ec5565b5f80613f0193613ee3613e90565b508390602081019051915af490613ef8613eac565b90919091613f22565b90565b613f0c610b94565b50613f1f5f613f19613b10565b01612b6d565b90565b90613f3690613f2f613e90565b50156101d1565b5f14613f425750613fa6565b613f4b82613c3a565b613f5d613f575f610e08565b9161022d565b1480613f8b575b613f6c575090565b613f87905f918291639996b31560e01b8352600483016106e5565b0390fd5b50803b613fa0613f9a5f610e08565b9161022d565b14613f64565b613faf81613c3a565b613fc1613fbb5f610e08565b9161022d565b115f14613fd057805190602001fd5b5f63d6bda27560e01b815280613fe8600482016103e8565b0390fdfea26469706673582212201158105e60b5aae49be5d87c4d02de509448abe2358b63f87ea22e937a1d490664736f6c634300081c0033","linkReferences":{}},"methodIdentifiers":{"DEFAULT_ADMIN_ROLE()":"a217fddf","UPGRADE_INTERFACE_VERSION()":"ad3cb1cc","addConditionalSupportedAsset(address,address)":"402edf32","addMarket(address,int256,int256,uint256)":"c8b4cf73","collectWinnings(uint256)":"c22c57c7","getAssetPrice(address)":"b3596f07","getRoleAdmin(bytes32)":"248a9ca3","grantRole(bytes32,address)":"2f2ff15d","hasRole(bytes32,address)":"91d14854","initialize(address,uint256,address,uint256)":"e24df754","isConditionalAssetSupported(address)":"b60b89c8","owner()":"8da5cb5b","placeBet(uint256,bool,uint256)":"1a38cac6","proxiableUUID()":"52d1902d","renounceOwnership()":"715018a6","renounceRole(bytes32,address)":"36568abe","resolveMarket(uint256)":"6399d03d","revokeRole(bytes32,address)":"d547741f","supportsInterface(bytes4)":"01ffc9a7","transferOwnership(address)":"f2fde38b","upgradeToAndCall(address,bytes)":"4f1ef286"},"id":0}