{"abi":[{"type":"constructor","inputs":[],"stateMutability":"nonpayable"},{"type":"function","name":"DEFAULT_ADMIN_ROLE","inputs":[],"outputs":[{"name":"","type":"bytes32","internalType":"bytes32"}],"stateMutability":"view"},{"type":"function","name":"UPGRADE_INTERFACE_VERSION","inputs":[],"outputs":[{"name":"","type":"string","internalType":"string"}],"stateMutability":"view"},{"type":"function","name":"addConditionalSupportedAsset","inputs":[{"name":"asset","type":"address","internalType":"address"},{"name":"oracle","type":"address","internalType":"address"}],"outputs":[],"stateMutability":"nonpayable"},{"type":"function","name":"addMarket","inputs":[{"name":"_conditionAsset","type":"address","internalType":"address"},{"name":"_conditionPercent","type":"int256","internalType":"int256"},{"name":"_resolvesAt","type":"uint256","internalType":"uint256"}],"outputs":[{"name":"marketId","type":"uint256","internalType":"uint256"}],"stateMutability":"nonpayable"},{"type":"function","name":"collectWinnings","inputs":[{"name":"marketId","type":"uint256","internalType":"uint256"}],"outputs":[{"name":"","type":"uint256","internalType":"uint256"}],"stateMutability":"nonpayable"},{"type":"function","name":"getAssetPrice","inputs":[{"name":"asset","type":"address","internalType":"address"}],"outputs":[{"name":"","type":"int256","internalType":"int256"}],"stateMutability":"view"},{"type":"function","name":"getMarket","inputs":[{"name":"marketId","type":"uint256","internalType":"uint256"}],"outputs":[{"name":"createdPrice","type":"int256","internalType":"int256"},{"name":"createdAt","type":"uint256","internalType":"uint256"},{"name":"resolvesAt","type":"uint256","internalType":"uint256"},{"name":"resolved","type":"bool","internalType":"bool"},{"name":"resolvedBy","type":"address","internalType":"address"},{"name":"conditionAsset","type":"address","internalType":"address"},{"name":"upConditionPercent","type":"int256","internalType":"int256"},{"name":"upTotalBets","type":"uint256","internalType":"uint256"},{"name":"downTotalBets","type":"uint256","internalType":"uint256"},{"name":"upWins","type":"bool","internalType":"bool"},{"name":"downWins","type":"bool","internalType":"bool"},{"name":"resolverPayout","type":"uint256","internalType":"uint256"},{"name":"housePayout","type":"uint256","internalType":"uint256"}],"stateMutability":"view"},{"type":"function","name":"getRoleAdmin","inputs":[{"name":"role","type":"bytes32","internalType":"bytes32"}],"outputs":[{"name":"","type":"bytes32","internalType":"bytes32"}],"stateMutability":"view"},{"type":"function","name":"getUsersMarketBet","inputs":[{"name":"marketId","type":"uint256","internalType":"uint256"},{"name":"user","type":"address","internalType":"address"}],"outputs":[{"name":"upBets","type":"int256","internalType":"int256"},{"name":"downBets","type":"int256","internalType":"int256"}],"stateMutability":"view"},{"type":"function","name":"grantRole","inputs":[{"name":"role","type":"bytes32","internalType":"bytes32"},{"name":"account","type":"address","internalType":"address"}],"outputs":[],"stateMutability":"nonpayable"},{"type":"function","name":"hasRole","inputs":[{"name":"role","type":"bytes32","internalType":"bytes32"},{"name":"account","type":"address","internalType":"address"}],"outputs":[{"name":"","type":"bool","internalType":"bool"}],"stateMutability":"view"},{"type":"function","name":"initialize","inputs":[{"name":"_asset","type":"address","internalType":"address"},{"name":"_houseRakePercent","type":"uint256","internalType":"uint256"},{"name":"_houseRakeReceiver","type":"address","internalType":"address"},{"name":"_resolverPercent","type":"uint256","internalType":"uint256"}],"outputs":[],"stateMutability":"nonpayable"},{"type":"function","name":"isConditionalAssetSupported","inputs":[{"name":"asset","type":"address","internalType":"address"}],"outputs":[{"name":"","type":"bool","internalType":"bool"}],"stateMutability":"view"},{"type":"function","name":"owner","inputs":[],"outputs":[{"name":"","type":"address","internalType":"address"}],"stateMutability":"view"},{"type":"function","name":"placeBet","inputs":[{"name":"marketId","type":"uint256","internalType":"uint256"},{"name":"isUpBet","type":"bool","internalType":"bool"},{"name":"amount","type":"uint256","internalType":"uint256"}],"outputs":[{"name":"","type":"bool","internalType":"bool"}],"stateMutability":"nonpayable"},{"type":"function","name":"proxiableUUID","inputs":[],"outputs":[{"name":"","type":"bytes32","internalType":"bytes32"}],"stateMutability":"view"},{"type":"function","name":"renounceOwnership","inputs":[],"outputs":[],"stateMutability":"nonpayable"},{"type":"function","name":"renounceRole","inputs":[{"name":"role","type":"bytes32","internalType":"bytes32"},{"name":"callerConfirmation","type":"address","internalType":"address"}],"outputs":[],"stateMutability":"nonpayable"},{"type":"function","name":"resolveMarket","inputs":[{"name":"marketId","type":"uint256","internalType":"uint256"}],"outputs":[],"stateMutability":"nonpayable"},{"type":"function","name":"revokeRole","inputs":[{"name":"role","type":"bytes32","internalType":"bytes32"},{"name":"account","type":"address","internalType":"address"}],"outputs":[],"stateMutability":"nonpayable"},{"type":"function","name":"supportsInterface","inputs":[{"name":"interfaceId","type":"bytes4","internalType":"bytes4"}],"outputs":[{"name":"","type":"bool","internalType":"bool"}],"stateMutability":"view"},{"type":"function","name":"transferOwnership","inputs":[{"name":"newOwner","type":"address","internalType":"address"}],"outputs":[],"stateMutability":"nonpayable"},{"type":"function","name":"upgradeToAndCall","inputs":[{"name":"newImplementation","type":"address","internalType":"address"},{"name":"data","type":"bytes","internalType":"bytes"}],"outputs":[],"stateMutability":"payable"},{"type":"event","name":"BetPlaced","inputs":[{"name":"marketId","type":"uint256","indexed":true,"internalType":"uint256"},{"name":"better","type":"address","indexed":true,"internalType":"address"},{"name":"isUp","type":"bool","indexed":false,"internalType":"bool"},{"name":"amount","type":"uint256","indexed":false,"internalType":"uint256"}],"anonymous":false},{"type":"event","name":"BetReturned","inputs":[{"name":"marketId","type":"uint256","indexed":true,"internalType":"uint256"},{"name":"who","type":"address","indexed":true,"internalType":"address"},{"name":"amount","type":"uint256","indexed":false,"internalType":"uint256"}],"anonymous":false},{"type":"event","name":"Initialized","inputs":[{"name":"version","type":"uint64","indexed":false,"internalType":"uint64"}],"anonymous":false},{"type":"event","name":"MarketAdded","inputs":[{"name":"id","type":"uint256","indexed":true,"internalType":"uint256"},{"name":"timestamp","type":"uint256","indexed":false,"internalType":"uint256"}],"anonymous":false},{"type":"event","name":"MarketResolved","inputs":[{"name":"id","type":"uint256","indexed":true,"internalType":"uint256"},{"name":"by","type":"address","indexed":true,"internalType":"address"},{"name":"timestamp","type":"uint256","indexed":false,"internalType":"uint256"}],"anonymous":false},{"type":"event","name":"OwnershipTransferred","inputs":[{"name":"previousOwner","type":"address","indexed":true,"internalType":"address"},{"name":"newOwner","type":"address","indexed":true,"internalType":"address"}],"anonymous":false},{"type":"event","name":"RoleAdminChanged","inputs":[{"name":"role","type":"bytes32","indexed":true,"internalType":"bytes32"},{"name":"previousAdminRole","type":"bytes32","indexed":true,"internalType":"bytes32"},{"name":"newAdminRole","type":"bytes32","indexed":true,"internalType":"bytes32"}],"anonymous":false},{"type":"event","name":"RoleGranted","inputs":[{"name":"role","type":"bytes32","indexed":true,"internalType":"bytes32"},{"name":"account","type":"address","indexed":true,"internalType":"address"},{"name":"sender","type":"address","indexed":true,"internalType":"address"}],"anonymous":false},{"type":"event","name":"RoleRevoked","inputs":[{"name":"role","type":"bytes32","indexed":true,"internalType":"bytes32"},{"name":"account","type":"address","indexed":true,"internalType":"address"},{"name":"sender","type":"address","indexed":true,"internalType":"address"}],"anonymous":false},{"type":"event","name":"Upgraded","inputs":[{"name":"implementation","type":"address","indexed":true,"internalType":"address"}],"anonymous":false},{"type":"event","name":"WinningsCollected","inputs":[{"name":"marketId","type":"uint256","indexed":true,"internalType":"uint256"},{"name":"winner","type":"address","indexed":true,"internalType":"address"},{"name":"amount","type":"uint256","indexed":false,"internalType":"uint256"}],"anonymous":false},{"type":"error","name":"AccessControlBadConfirmation","inputs":[]},{"type":"error","name":"AccessControlUnauthorizedAccount","inputs":[{"name":"account","type":"address","internalType":"address"},{"name":"neededRole","type":"bytes32","internalType":"bytes32"}]},{"type":"error","name":"AddressEmptyCode","inputs":[{"name":"target","type":"address","internalType":"address"}]},{"type":"error","name":"ERC1967InvalidImplementation","inputs":[{"name":"implementation","type":"address","internalType":"address"}]},{"type":"error","name":"ERC1967NonPayable","inputs":[]},{"type":"error","name":"FailedCall","inputs":[]},{"type":"error","name":"InvalidInitialization","inputs":[]},{"type":"error","name":"NotInitializing","inputs":[]},{"type":"error","name":"OwnableInvalidOwner","inputs":[{"name":"owner","type":"address","internalType":"address"}]},{"type":"error","name":"OwnableUnauthorizedAccount","inputs":[{"name":"account","type":"address","internalType":"address"}]},{"type":"error","name":"ReentrancyGuardReentrantCall","inputs":[]},{"type":"error","name":"UUPSUnauthorizedCallContext","inputs":[]},{"type":"error","name":"UUPSUnsupportedProxiableUUID","inputs":[{"name":"slot","type":"bytes32","internalType":"bytes32"}]}],"bytecode":{"object":"0x60a06040523461003e5761001161004d565b610019610043565b6144016102c8823960805181818161385b015281816138c00152613a67015261440190f35b610049565b60405190565b5f80fd5b6100556100a1565b61005d61019e565b565b60018060a01b031690565b90565b61008161007c6100869261005f565b61006a565b61005f565b90565b6100929061006d565b90565b61009e90610089565b90565b6100aa30610095565b608052565b60401c90565b60ff1690565b6100c76100cc916100af565b6100b5565b90565b6100d990546100bb565b90565b5f0190565b5f1c90565b60018060401b031690565b6100fd610102916100e1565b6100e6565b90565b61010f90546100f1565b90565b60018060401b031690565b5f1b90565b9061013360018060401b039161011d565b9181191691161790565b61015161014c61015692610112565b61006a565b610112565b90565b90565b9061017161016c6101789261013d565b610159565b8254610122565b9055565b61018590610112565b9052565b919061019c905f6020850194019061017c565b565b6101a6610256565b6101b15f82016100cf565b61023a576101c05f8201610105565b6101d86101d260018060401b03610112565b91610112565b036101e1575b50565b6101f4905f60018060401b03910161015c565b60018060401b036102317fc7f505b2f371ae2175ee4913f4499e1f2633a7b5936321eed1cdaeb6115181d291610228610043565b91829182610189565b0390a15f6101de565b5f63f92ee8a960e01b815280610252600482016100dc565b0390fd5b61025e6102b3565b90565b5f90565b90565b90565b61027f61027a61028492610265565b61011d565b610268565b90565b6102b07ff0c57e16840df040f15088dc2f81fe391c3923bec73e23a9662efc9c229c6a0061026b565b90565b6102bb610261565b506102c4610287565b9056fe60806040526004361015610013575b610d2f565b61001d5f3561018c565b806301ffc9a7146101875780631a38cac614610182578063248a9ca31461017d5780632f2ff15d1461017857806336568abe14610173578063402edf321461016e5780634f1ef2861461016957806352d1902d146101645780636399d03d1461015f578063715018a61461015a5780638da5cb5b1461015557806391d1485414610150578063a217fddf1461014b578063ad3cb1cc14610146578063b3596f0714610141578063b60b89c81461013c578063c22c57c714610137578063d547741f14610132578063e24df7541461012d578063ea3878b714610128578063eb44fdd314610123578063f2fde38b1461011e5763f6cc7a310361000e57610cf8565b610c75565b610c30565b610b38565b610aa4565b610a2a565b6109f5565b61099e565b610969565b6108f1565b6107c0565b61074f565b61071a565b6106c5565b610692565b61063f565b610606565b6104a2565b610441565b61040d565b61036c565b6102d0565b610218565b60e01c90565b60405190565b5f80fd5b5f80fd5b5f80fd5b63ffffffff60e01b1690565b6101b9816101a4565b036101c057565b5f80fd5b905035906101d1826101b0565b565b906020828203126101ec576101e9915f016101c4565b90565b61019c565b151590565b6101ff906101f1565b9052565b9190610216905f602085019401906101f6565b565b346102485761024461023361022e3660046101d3565b610d37565b61023b610192565b91829182610203565b0390f35b610198565b90565b6102598161024d565b0361026057565b5f80fd5b9050359061027182610250565b565b61027c816101f1565b0361028357565b5f80fd5b9050359061029482610273565b565b90916060828403126102cb576102c86102b1845f8501610264565b936102bf8160208601610287565b93604001610264565b90565b61019c565b34610301576102fd6102ec6102e6366004610296565b916115c9565b6102f4610192565b91829182610203565b0390f35b610198565b90565b61031281610306565b0361031957565b5f80fd5b9050359061032a82610309565b565b9060208282031261034557610342915f0161031d565b90565b61019c565b61035390610306565b9052565b919061036a905f6020850194019061034a565b565b3461039c5761039861038761038236600461032c565b611629565b61038f610192565b91829182610357565b0390f35b610198565b60018060a01b031690565b6103b5906103a1565b90565b6103c1816103ac565b036103c857565b5f80fd5b905035906103d9826103b8565b565b919060408382031261040357806103f7610400925f860161031d565b936020016103cc565b90565b61019c565b5f0190565b3461043c576104266104203660046103db565b9061167d565b61042e610192565b8061043881610408565b0390f35b610198565b346104705761045a6104543660046103db565b90611689565b610462610192565b8061046c81610408565b0390f35b610198565b919060408382031261049d578061049161049a925f86016103cc565b936020016103cc565b90565b61019c565b346104d1576104bb6104b5366004610475565b90611997565b6104c3610192565b806104cd81610408565b0390f35b610198565b5f80fd5b5f80fd5b601f801991011690565b634e487b7160e01b5f52604160045260245ffd5b90610506906104de565b810190811067ffffffffffffffff82111761052057604052565b6104e8565b90610538610531610192565b92836104fc565b565b67ffffffffffffffff8111610558576105546020916104de565b0190565b6104e8565b90825f939282370152565b9092919261057d6105788261053a565b610525565b93818552602085019082840111610599576105979261055d565b565b6104da565b9080601f830112156105bc578160206105b993359101610568565b90565b6104d6565b919091604081840312610601576105da835f83016103cc565b92602082013567ffffffffffffffff81116105fc576105f9920161059e565b90565b6101a0565b61019c565b61061a6106143660046105c1565b906119cc565b610622610192565b8061062c81610408565b0390f35b5f91031261063a57565b61019c565b3461066f5761064f366004610630565b61066b61065a611a43565b610662610192565b91829182610357565b0390f35b610198565b9060208282031261068d5761068a915f01610264565b90565b61019c565b346106c0576106aa6106a5366004610674565b611e1b565b6106b2610192565b806106bc81610408565b0390f35b610198565b346106f3576106d5366004610630565b6106dd611e4b565b6106e5610192565b806106ef81610408565b0390f35b610198565b610701906103ac565b9052565b9190610718905f602085019401906106f8565b565b3461074a5761072a366004610630565b610746610735611e59565b61073d610192565b91829182610705565b0390f35b610198565b346107805761077c61076b6107653660046103db565b90611e8d565b610773610192565b91829182610203565b0390f35b610198565b90565b5f1b90565b6107a161079c6107a692610785565b610788565b610306565b90565b6107b25f61078d565b90565b6107bd6107a9565b90565b346107f0576107d0366004610630565b6107ec6107db6107b5565b6107e3610192565b91829182610357565b0390f35b610198565b67ffffffffffffffff81116108135761080f6020916104de565b0190565b6104e8565b9061082a610825836107f5565b610525565b918252565b5f7f352e302e30000000000000000000000000000000000000000000000000000000910152565b6108606005610818565b9061086d6020830161082f565b565b610877610856565b90565b61088261086f565b90565b61088d61087a565b90565b5190565b60209181520190565b90825f9392825e0152565b6108c76108d06020936108d5936108be81610890565b93848093610894565b9586910161089d565b6104de565b0190565b6108ee9160208201915f8184039101526108a8565b90565b3461092157610901366004610630565b61091d61090c610885565b610914610192565b918291826108d9565b0390f35b610198565b9060208282031261093f5761093c915f016103cc565b90565b61019c565b90565b61095090610944565b9052565b9190610967905f60208501940190610947565b565b346109995761099561098461097f366004610926565b6121c0565b61098c610192565b91829182610954565b0390f35b610198565b346109ce576109ca6109b96109b4366004610926565b6122df565b6109c1610192565b91829182610203565b0390f35b610198565b6109dc9061024d565b9052565b91906109f3905f602085019401906109d3565b565b34610a2557610a21610a10610a0b366004610674565b612a60565b610a18610192565b918291826109e0565b0390f35b610198565b34610a5957610a43610a3d3660046103db565b90612a9e565b610a4b610192565b80610a5581610408565b0390f35b610198565b608081830312610a9f57610a74825f83016103cc565b92610a9c610a858460208501610264565b93610a9381604086016103cc565b93606001610264565b90565b61019c565b34610ad657610ac0610ab7366004610a5e565b9291909161305d565b610ac8610192565b80610ad281610408565b0390f35b610198565b610ae481610944565b03610aeb57565b5f80fd5b90503590610afc82610adb565b565b9091606082840312610b3357610b30610b19845f85016103cc565b93610b278160208601610aef565b93604001610264565b90565b61019c565b34610b6957610b65610b54610b4e366004610afe565b916132f9565b610b5c610192565b918291826109e0565b0390f35b610198565b9a98969492909d9c9b99979593916101a08c019e5f8d01610b8e91610947565b60208c01610b9b916109d3565b60408b01610ba8916109d3565b60608a01610bb5916101f6565b60808901610bc2916106f8565b60a08801610bcf916106f8565b60c08701610bdc91610947565b60e08601610be9916109d3565b6101008501610bf7916109d3565b6101208401610c05916101f6565b6101408301610c13916101f6565b6101608201610c21916109d3565b61018001610c2e916109d3565b565b34610c7057610c6c610c4b610c46366004610674565b61330f565b99610c639d9b9d999199989298979397969496610192565b9d8e9d8e610b6e565b0390f35b610198565b34610ca357610c8d610c88366004610926565b6134ba565b610c95610192565b80610c9f81610408565b0390f35b610198565b9190604083820312610cd05780610cc4610ccd925f8601610264565b936020016103cc565b90565b61019c565b916020610cf6929493610cef60408201965f830190610947565b0190610947565b565b34610d2a57610d11610d0b366004610ca8565b906134c5565b90610d26610d1d610192565b92839283610cd5565b0390f35b610198565b5f80fd5b5f90565b610d3f610d33565b5080610d5a610d54637965db0b60e01b6101a4565b916101a4565b14908115610d67575b5090565b610d719150613528565b5f610d63565b90610d8b939291610d8661357a565b611347565b90610d94613606565b565b90565b610dad610da8610db29261024d565b610d96565b61024d565b90565b90610dbf90610d99565b5f5260205260405f2090565b90565b5f1c90565b60018060a01b031690565b610dea610def91610dce565b610dd3565b90565b610dfc9054610dde565b90565b610e13610e0e610e1892610785565b610d96565b6103a1565b90565b610e2490610dff565b90565b5f7f496e76616c6964206d61726b6574000000000000000000000000000000000000910152565b610e5b600e602092610894565b610e6481610e27565b0190565b610e7d9060208101905f818303910152610e4e565b90565b15610e8757565b610e8f610192565b62461bcd60e51b815280610ea560048201610e68565b0390fd5b90565b610eb8610ebd91610dce565b610ea9565b90565b610eca9054610eac565b90565b90565b610ee4610edf610ee992610ecd565b610d96565b61024d565b90565b634e487b7160e01b5f52601160045260245ffd5b610f0f610f159193929361024d565b9261024d565b8203918211610f2057565b610eec565b5f7f42657474696e6720636c6f736564000000000000000000000000000000000000910152565b610f59600e602092610894565b610f6281610f25565b0190565b610f7b9060208101905f818303910152610f4c565b90565b15610f8557565b610f8d610192565b62461bcd60e51b815280610fa360048201610f66565b0390fd5b610fbb610fb6610fc092610785565b610d96565b61024d565b90565b5f7f496e76616c69642062657420616d6f756e740000000000000000000000000000910152565b610ff76012602092610894565b61100081610fc3565b0190565b6110199060208101905f818303910152610fea565b90565b1561102357565b61102b610192565b62461bcd60e51b81528061104160048201611004565b0390fd5b60ff1690565b61105761105c91610dce565b611045565b90565b611069905461104b565b90565b5f7f4d61726b6574207265736f6c7665640000000000000000000000000000000000910152565b6110a0600f602092610894565b6110a98161106c565b0190565b6110c29060208101905f818303910152611093565b90565b156110cc57565b6110d4610192565b62461bcd60e51b8152806110ea600482016110ad565b0390fd5b6111026110fd611107926103a1565b610d96565b6103a1565b90565b611113906110ee565b90565b61111f9061110a565b90565b61112b906110ee565b90565b61113790611122565b90565b61114390611122565b90565b60e01b90565b9050519061115982610273565b565b9060208282031261117457611171915f0161114c565b90565b61019c565b6040906111a26111a9949695939661119860608401985f8501906106f8565b60208301906106f8565b01906109d3565b565b6111b3610192565b3d5f823e3d90fd5b6111ca6111d09193929361024d565b9261024d565b82018092116111db57565b610eec565b906111ec5f1991610788565b9181191691161790565b90565b9061120e61120961121592610d99565b6111f6565b82546111e0565b9055565b61122d6112286112329261024d565b610d96565b610944565b90565b61123e90611122565b90565b9061124b90611235565b5f5260205260405f2090565b90565b61126661126b91610dce565b611257565b90565b611278905461125a565b90565b61128a61129091939293610944565b92610944565b91828103925f8285128183121692851391121516176112ab57565b610eec565b6112c46112bf6112c992610944565b610d96565b610944565b90565b90565b906112e46112df6112eb926112b0565b6112cc565b82546111e0565b9055565b6112fe61130491939293610944565b92610944565b808301925f8285121581831216928512911215161761131f57565b610eec565b91602061134592949361133e60408201965f8301906101f6565b01906109d3565b565b50611350613623565b61142661142161141c5f61137061136b600587018890610db5565b610dcb565b946113a161138060048801610df2565b61139a61139461138f86610e1b565b6103ac565b916103ac565b1415610e80565b6113dd426113d76113d16113cc6113ba60028c01610ec0565b6113c662015180610ed0565b90610f00565b61024d565b9161024d565b10610f7e565b6113f9896113f36113ed85610fa7565b9161024d565b1161101c565b61141661141161140b6003890161105f565b156101f1565b6110c5565b01610df2565b611116565b61112e565b60206323b872dd91611436613647565b9061145d5f6114443061113a565b956114688b611451610192565b98899788968795611146565b855260048501611179565b03925af180156115c457611598575b50825f14611536576114db906114a38561149d600684019161149883610ec0565b6111bb565b906111f9565b6114d55f6114c5600b6114b589611219565b94016114bf613647565b90611241565b01916114d08361126e565b6112ef565b906112cf565b5b6114e4613647565b91926115196115137f4af71b021e799c62c158bd54636ca8da2fa26115a21a2dc6efe486ec104fd15f93610d99565b93611235565b9361152e611525610192565b92839283611324565b0390a3600190565b6115939061155a85611554600784019161154f83610ec0565b6111bb565b906111f9565b61158d600161157d600b61156d89611219565b9401611577613647565b90611241565b01916115888361126e565b61127b565b906112cf565b6114dc565b6115b89060203d81116115bd575b6115b081836104fc565b81019061115b565b611477565b503d6115a6565b6111ab565b906115dc92916115d7610d33565b610d77565b90565b5f90565b6115ec90610306565b90565b906115f9906115e3565b5f5260205260405f2090565b90565b61161461161991610dce565b611605565b90565b6116269054611608565b90565b600161164a6116509261163a6115df565b505f611644613654565b016115ef565b0161161c565b90565b9061166e9161166961166482611629565b613678565b611670565b565b9061167a9161368c565b50565b9061168791611653565b565b90806116a461169e611699613647565b6103ac565b916103ac565b036116b5576116b291613743565b50565b5f63334bd91960e11b8152806116cd60048201610408565b0390fd5b906116e3916116de6137f0565b61190b565b565b5f7f496e76616c696420617373657400000000000000000000000000000000000000910152565b611719600d602092610894565b611722816116e5565b0190565b61173b9060208101905f81830391015261170c565b90565b1561174557565b61174d610192565b62461bcd60e51b81528061176360048201611726565b0390fd5b5f7f496e76616c6964206f7261636c65000000000000000000000000000000000000910152565b61179b600e602092610894565b6117a481611767565b0190565b6117bd9060208101905f81830391015261178e565b90565b156117c757565b6117cf610192565b62461bcd60e51b8152806117e5600482016117a8565b0390fd5b6117f36040610525565b90565b90611800906101f1565b9052565b9061180e906103ac565b9052565b9061181c90611235565b5f5260205260405f2090565b61183290516101f1565b90565b9061184160ff91610788565b9181191691161790565b611854906101f1565b90565b90565b9061186f61186a6118769261184b565b611857565b8254611835565b9055565b61188490516103ac565b90565b60081b90565b906118a0610100600160a81b0391611887565b9181191691161790565b90565b906118c26118bd6118c992611235565b6118aa565b825461188d565b9055565b906118f760205f6118fd946118ef8282016118e9848801611828565b9061185a565b01920161187a565b906118ad565b565b90611909916118cd565b565b90611990611995926119388161193161192b6119265f610e1b565b6103ac565b916103ac565b141561173e565b61195d8361195661195061194b5f610e1b565b6103ac565b916103ac565b14156117c0565b61198060019361197761196e6117e9565b955f87016117f6565b60208501611804565b600661198a613623565b01611812565b6118ff565b565b906119a1916116d1565b565b906119b5916119b061384a565b6119b7565b565b906119ca916119c5816138fc565b613958565b565b906119d6916119a3565b565b6119e9906119e4613a56565b611a37565b90565b90565b611a036119fe611a08926119ec565b610788565b610306565b90565b611a347f360894a13ba1a3210667c828492db98dca3e2076cc3735a920a3ca505d382bbc6119ef565b90565b50611a40611a0b565b90565b611a53611a4e6115df565b6119d8565b90565b611a6790611a6261357a565b611bf1565b611a6f613606565b565b5f7f416c7265616479207265736f6c76656400000000000000000000000000000000910152565b611aa56010602092610894565b611aae81611a71565b0190565b611ac79060208101905f818303910152611a98565b90565b15611ad157565b611ad9610192565b62461bcd60e51b815280611aef60048201611ab2565b0390fd5b5f7f546f6f206561726c7920746f207265736f6c7665000000000000000000000000910152565b611b276014602092610894565b611b3081611af3565b0190565b611b499060208101905f818303910152611b1a565b90565b15611b5357565b611b5b610192565b62461bcd60e51b815280611b7160048201611b34565b0390fd5b611b7e90610944565b600160ff1b8114611b8e575f0390565b610eec565b90611ba061ff0091611887565b9181191691161790565b90611bbf611bba611bc69261184b565b611857565b8254611b93565b9055565b60081c90565b611bdc611be191611bca565b611045565b90565b611bee9054611bd0565b90565b611d4e611c11611c0c6005611c04613623565b018490610db5565b610dcb565b611c2e611c29611c236003840161105f565b156101f1565b611aca565b611c5642611c4f611c49611c4460028601610ec0565b61024d565b9161024d565b1015611b4c565b611c86611c6560048301610df2565b611c7f611c79611c745f610e1b565b6103ac565b916103ac565b1415610e80565b611d0a611cb0611ca0611c9b60048501610df2565b6121c0565b611cab5f850161126e565b613bd7565b611cdb81611cd1611ccb611cc66005880161126e565b610944565b91610944565b136008850161185a565b611d00611cfa611cf5611cf06005870161126e565b611b75565b610944565b91610944565b1260088301611baa565b611d166008820161105f565b8015611e09575b611da5575b611d3060016003830161185a565b611d44611d3b613647565b600383016118ad565b60024291016111f9565b611d56613647565b4291611da0611d8e611d887facef513e023ec1abbd3ca7f9f777a61f3806bf0118d30302223ef3a4c9afb28493610d99565b93611235565b93611d97610192565b918291826109e0565b0390a3565b611db16008820161105f565b5f14611df257611ded611de4611dc960078401610ec0565b5b611ddf611dd682613c42565b600986016111f9565b613d34565b600a83016111f9565b611d22565b611ded611de4611e0460068401610ec0565b611dca565b50611e1660088201611be4565b611d1d565b611e2490611a56565b565b611e2e6137f0565b611e36611e38565b565b611e49611e445f610e1b565b613e29565b565b611e53611e26565b565b5f90565b611e61611e55565b50611e745f611e6e613e95565b01610df2565b90565b90611e8190611235565b5f5260205260405f2090565b611ebc915f611eb1611eb793611ea1610d33565b5082611eab613654565b016115ef565b01611e77565b61105f565b90565b5f90565b611ecf611ed491611bca565b610dd3565b90565b611ee19054611ec3565b90565b611eee6040610525565b90565b90611f27611f1e5f611f01611ee4565b94611f18611f1083830161105f565b8388016117f6565b01611ed7565b60208401611804565b565b611f3290611ef1565b90565b5f7f556e737570706f72746564206173736574000000000000000000000000000000910152565b611f696011602092610894565b611f7281611f35565b0190565b611f8b9060208101905f818303910152611f5c565b90565b15611f9557565b611f9d610192565b62461bcd60e51b815280611fb360048201611f76565b0390fd5b611fc0906110ee565b90565b611fcc90611fb7565b90565b611fd890611122565b90565b69ffffffffffffffffffff1690565b611ff381611fdb565b03611ffa57565b5f80fd5b9050519061200b82611fea565b565b9050519061201a82610adb565b565b9050519061202982610250565b565b919060a08382031261207c57612043815f8501611ffe565b92612051826020830161200d565b92612079612062846040850161201c565b93612070816060860161201c565b93608001611ffe565b90565b61019c565b61209561209061209a92610785565b610d96565b610944565b90565b5f7f496e76616c696420707269636500000000000000000000000000000000000000910152565b6120d1600d602092610894565b6120da8161209d565b0190565b6120f39060208101905f8183039101526120c4565b90565b156120fd57565b612105610192565b62461bcd60e51b81528061211b600482016120de565b0390fd5b90565b61213661213161213b9261211f565b610d96565b61024d565b90565b5f7f5374616c65207072696365000000000000000000000000000000000000000000910152565b612172600b602092610894565b61217b8161213e565b0190565b6121949060208101905f818303910152612165565b90565b1561219e57565b6121a6610192565b62461bcd60e51b8152806121bc6004820161217f565b0390fd5b60a061221861221361220e60206121f56121f061222e976121df611ebf565b5060066121ea613623565b01611812565b611f29565b6122086122035f8301611828565b611f8e565b0161187a565b611fc3565b611fcf565b63feaf968c90612226610192565b938492611146565b8252818061223e60048201610408565b03915afa80156122da575f808080949250509161229e575b5061228161229b919261227b8461227561226f5f612081565b91610944565b136120f6565b42610f00565b61229561228f611c20612122565b9161024d565b10612197565b90565b612281925061229b91506122c89060a03d81116122d3575b6122c081836104fc565b81019061202b565b509450509150612256565b503d6122b6565b6111ab565b5f612300612306926122ef610d33565b5060066122fa613623565b01611812565b0161105f565b90565b5f90565b9061231f9161231a61357a565b6124d8565b90612328613606565b565b5f7f4d61726b6574206e6f74207265736f6c76656400000000000000000000000000910152565b61235e6013602092610894565b6123678161232a565b0190565b6123809060208101905f818303910152612351565b90565b1561238a57565b612392610192565b62461bcd60e51b8152806123a86004820161236b565b0390fd5b5f7f4e6f206265747320706c61636564000000000000000000000000000000000000910152565b6123e0600e602092610894565b6123e9816123ac565b0190565b6124029060208101905f8183039101526123d3565b90565b1561240c57565b612414610192565b62461bcd60e51b81528061242a600482016123ed565b0390fd5b61244261243d61244792610944565b610d96565b61024d565b90565b91602061246b92949361246460408201965f8301906106f8565b01906109d3565b565b61247c6124829193929361024d565b9261024d565b9161248e83820261024d565b92818404149015171561249d57565b610eec565b634e487b7160e01b5f52601260045260245ffd5b6124c26124c89161024d565b9161024d565b9081156124d3570490565b6124a2565b506124e1613623565b906124f86124f3600584018390610db5565b610dcb565b9161250d6125086003850161105f565b612383565b61252c5f612526600b8601612520613647565b90611241565b0161126e565b61253e6125385f612081565b91610944565b14158015612a21575b61255090612405565b61255c6008840161105f565b806129e9575b61256e60088501611be4565b806129ab575b61257f9091156101f1565b908161299a575b506127f3576126b06126ab5f6126b5936125a26008880161105f565b82146127dc576126a56126566125ba60068a01610ec0565b5b6125c760088b0161105f565b85146127c8576126516125dc60078c01610ec0565b5b6125e960088d0161105f565b87146127875761264b8c612645600a61263e61262a6126256126208e61261a600b8901612614613647565b90611241565b0161126e565b613eb9565b61242e565b5b9561263860098601610ec0565b90610f00565b9201610ec0565b90610f00565b9061246d565b6124b6565b9761267f61266385612081565b85612679600b8501612673613647565b90611241565b016112cf565b600161269f600b61268f87612081565b9301612699613647565b90611241565b016112cf565b01610df2565b611116565b61112e565b602063a9059cbb916126c5613647565b906126e35f87956126ee6126d7610192565b97889687958694611146565b84526004840161244a565b03925af1801561278257612756575b50612706613647565b829161275061273e6127387fbeb83c766f929cd13ff8dd36bf2edc610ee368ba90d3613e2dded0e6d99f92e293610d99565b93611235565b93612747610192565b918291826109e0565b0390a390565b6127769060203d811161277b575b61276e81836104fc565b81019061115b565b6126fd565b503d612764565b6111ab565b61264b8c612645600a61263e6127c36127be6127b960016127b3600b89016127ad613647565b90611241565b0161126e565b613eb9565b61242e565b61262b565b6126516127d760068c01610ec0565b6125dd565b6126a56126566127ee60078a01610ec0565b6125bb565b6128c36128be5f6128c8936128b86128698861286361285e6128596001612853600b61284361283e6128398d612833858c0161282d613647565b90611241565b0161126e565b613eb9565b61242e565b960161284d613647565b90611241565b0161126e565b613eb9565b61242e565b906111bb565b9761289261287685612081565b8561288c600b8501612886613647565b90611241565b016112cf565b60016128b2600b6128a287612081565b93016128ac613647565b90611241565b016112cf565b01610df2565b611116565b61112e565b602063a9059cbb916128d8613647565b906128f65f87956129016128ea610192565b97889687958694611146565b84526004840161244a565b03925af1801561299557612969575b50612919613647565b829161296361295161294b7f757db202439744d74cb7a1a6abc7549f4a49e7efba6f870c33e2bf48ef343cb393610d99565b93611235565b9361295a610192565b918291826109e0565b0390a390565b6129899060203d811161298e575b61298181836104fc565b81019061115b565b612910565b503d612977565b6111ab565b6129a59150156101f1565b5f612586565b5061257f6129cf60016129c9600b88016129c3613647565b90611241565b0161126e565b6129e16129db5f612081565b91610944565b129050612574565b50612a095f612a03600b86016129fd613647565b90611241565b0161126e565b612a1b612a155f612081565b91610944565b13612562565b50612550612a456001612a3f600b8701612a39613647565b90611241565b0161126e565b612a57612a515f612081565b91610944565b14159050612547565b612a7190612a6c612309565b61230d565b90565b90612a8f91612a8a612a8582611629565b613678565b612a91565b565b90612a9b91613743565b50565b90612aa891612a74565b565b60401c90565b612abc612ac191612aaa565b611045565b90565b612ace9054612ab0565b90565b67ffffffffffffffff1690565b612aea612aef91610dce565b612ad1565b90565b612afc9054612ade565b90565b67ffffffffffffffff1690565b612b20612b1b612b2592610785565b610d96565b612aff565b90565b90565b612b3f612b3a612b4492612b28565b610d96565b612aff565b90565b612b5090611122565b90565b90612b6667ffffffffffffffff91610788565b9181191691161790565b612b84612b7f612b8992612aff565b610d96565b612aff565b90565b90565b90612ba4612b9f612bab92612b70565b612b8c565b8254612b53565b9055565b60401b90565b90612bc968ff000000000000000091612baf565b9181191691161790565b90612be8612be3612bef9261184b565b611857565b8254612bb5565b9055565b612bfc90612b2b565b9052565b9190612c13905f60208501940190612bf3565b565b909192612c20613eef565b93612c35612c2f5f8701612ac4565b156101f1565b93612c415f8701612af2565b80612c54612c4e5f612b0c565b91612aff565b1480612d6e575b90612c6f612c696001612b2b565b91612aff565b1480612d46575b612c819091156101f1565b9081612d35575b50612d1957612cb193612ca6612c9e6001612b2b565b5f8901612b8f565b85612d07575b612f55565b612cb9575b50565b612cc6905f809101612bd3565b6001612cfe7fc7f505b2f371ae2175ee4913f4499e1f2633a7b5936321eed1cdaeb6115181d291612cf5610192565b91829182612c00565b0390a15f612cb6565b612d1460015f8901612bd3565b612cac565b5f63f92ee8a960e01b815280612d3160048201610408565b0390fd5b612d409150156101f1565b5f612c88565b50612c81612d5330612b47565b3b612d66612d605f610fa7565b9161024d565b149050612c76565b5085612c5b565b5f7f496e76616c696420726563656976657200000000000000000000000000000000910152565b612da96010602092610894565b612db281612d75565b0190565b612dcb9060208101905f818303910152612d9c565b90565b15612dd557565b612ddd610192565b62461bcd60e51b815280612df360048201612db6565b0390fd5b90565b612e0e612e09612e1392612df7565b610d96565b61024d565b90565b5f7f486f7573652072616b6520746f6f206869676800000000000000000000000000910152565b612e4a6013602092610894565b612e5381612e16565b0190565b612e6c9060208101905f818303910152612e3d565b90565b15612e7657565b612e7e610192565b62461bcd60e51b815280612e9460048201612e57565b0390fd5b5f7f5265736f6c7665722063757420746f6f20686967680000000000000000000000910152565b612ecc6015602092610894565b612ed581612e98565b0190565b612eee9060208101905f818303910152612ebf565b90565b15612ef857565b612f00610192565b62461bcd60e51b815280612f1660048201612ed9565b0390fd5b90612f2b60018060a01b0391610788565b9181191691161790565b90612f4a612f45612f5192611235565b6118aa565b8254612f1a565b9055565b919261303a61304194613031600494612f8987612f82612f7c612f775f610e1b565b6103ac565b916103ac565b141561173e565b612fae83612fa7612fa1612f9c5f610e1b565b6103ac565b916103ac565b1415612dce565b612fcd81612fc6612fc06103e8612dfa565b9161024d565b1115612e6f565b612fec85612fe5612fdf6103e8612dfa565b9161024d565b1115612ef1565b612ff4613f16565b613004612fff613647565b613f3e565b61300c613f53565b613014613f67565b61302861301f613623565b975f8901612f35565b600287016111f9565b60038501612f35565b91016111f9565b61305a61304c6107a9565b613054613647565b9061368c565b50565b90613069939291612c15565b565b9061307f93929161307a61357a565b6131c9565b90613088613606565b565b90565b6130a161309c6130a69261308a565b610d96565b610944565b90565b5f7f436f6e646974696f6e20746f6f206c6f77000000000000000000000000000000910152565b6130dd6011602092610894565b6130e6816130a9565b0190565b6130ff9060208101905f8183039101526130d0565b90565b1561310957565b613111610192565b62461bcd60e51b815280613127600482016130ea565b0390fd5b5f7f5265736f6c7574696f6e20746f6f20736f6f6e00000000000000000000000000910152565b61315f6013602092610894565b6131688161312b565b0190565b6131819060208101905f818303910152613152565b90565b1561318b57565b613193610192565b62461bcd60e51b8152806131a96004820161316c565b0390fd5b6131b69061024d565b5f1981146131c45760010190565b610eec565b6132b192600591506131e26131dd846122df565b611f8e565b613200816131f96131f3606461308d565b91610944565b1215613102565b6132318561322b6132256132204261321a62015180610ed0565b906111bb565b61024d565b9161024d565b11613184565b6132aa61323c613623565b956132946001880161326061325082610ec0565b9161325a836131ad565b906111f9565b9761328c61328261327d886132748b6121c0565b94018c90610db5565b610dcb565b9760048901612f35565b5f87016112cf565b6132a142600187016111f9565b600285016111f9565b91016112cf565b8042906132f36132e17fb5b9f12f559f8d5c9b50e5480dc62372c96159810e7e5293896b6f0a13b7cb7892610d99565b926132ea610192565b918291826109e0565b0390a290565b9061330c9291613307612309565b61306b565b90565b61339b6133a09161331e611ebf565b50613327612309565b50613330612309565b50613339610d33565b50613342611e55565b5061334b611e55565b50613354611ebf565b5061335d612309565b50613366612309565b5061336f610d33565b50613378610d33565b50613381612309565b5061338a612309565b506005613395613623565b01610db5565b610dcb565b6133ab5f820161126e565b6133b760018301610ec0565b926133c460028401610ec0565b926133d16003820161105f565b926133de60038301611ed7565b926133eb60048401610df2565b926133f86005820161126e565b9261340560068301610ec0565b9261341260078401610ec0565b9261341f6008820161105f565b9261342c60088301611be4565b92613445600a61343e60098601610ec0565b9401610ec0565b919c9b9a99989796959493929190565b613466906134616137f0565b613468565b565b8061348361347d6134785f610e1b565b6103ac565b916103ac565b146134935761349190613e29565b565b6134b661349f5f610e1b565b5f918291631e4fbdf760e01b835260048301610705565b0390fd5b6134c390613455565b565b600161351f6134fe6134f9613525949695966134df611ebf565b506134e8611ebf565b5060056134f3613623565b01610db5565b610dcb565b94600b6135185f613512838a018590611241565b0161126e565b9601611241565b0161126e565b90565b613530610d33565b5061354a6135446301ffc9a760e01b6101a4565b916101a4565b1490565b90565b61356561356061356a9261354e565b610d96565b61024d565b90565b6135776002613551565b90565b613582613f71565b61358d5f8201610ec0565b6135a66135a061359b61356d565b61024d565b9161024d565b146135c1576135bf905f6135b861356d565b91016111f9565b565b5f633ee5aeb560e01b8152806135d960048201610408565b0390fd5b6135f16135ec6135f692612b28565b610d96565b61024d565b90565b61360360016135dd565b90565b613621613611613f71565b5f61361a6135f9565b91016111f9565b565b7f078b9a5a10e60aff8f55e9477cc53791735a7ce2b851408e1eb5a144966fb30090565b61364f611e55565b503390565b7f02dd7bc7dec4dceedda775e58dd541e08a116c6c53815c0bd028192f7b62680090565b61368a90613684613647565b90613fb8565b565b613694610d33565b5061369d613654565b6136b16136ab838590611e8d565b156101f1565b5f1461373c576136db906136d65f6136ce816001940186906115ef565b018590611e77565b61185a565b906136e4613647565b9061372161371b6137157f2f8788117e7eff1d82e926ec794901d17c78024a50270940304540a733656f0d956115e3565b92611235565b92611235565b9261372a610192565b8061373481610408565b0390a4600190565b5050505f90565b61374b610d33565b50613754613654565b61375f828490611e8d565b5f146137e957613788906137835f61377b8180940186906115ef565b018590611e77565b61185a565b90613791613647565b906137ce6137c86137c27ff6391f5c32d9c69d2a47ea670b442974b53935d1edc7fd64eb21e047a839171b956115e3565b92611235565b92611235565b926137d7610192565b806137e181610408565b0390a4600190565b5050505f90565b6137f8611e59565b61381161380b613806613647565b6103ac565b916103ac565b0361381857565b61383a613823613647565b5f91829163118cdaa760e01b835260048301610705565b0390fd5b61384790611122565b90565b6138533061383e565b61388561387f7f00000000000000000000000000000000000000000000000000000000000000006103ac565b916103ac565b1480156138af575b61389357565b5f63703e46dd60e11b8152806138ab60048201610408565b0390fd5b506138b8613ff3565b6138ea6138e47f00000000000000000000000000000000000000000000000000000000000000006103ac565b916103ac565b141561388d565b506138fa6137f0565b565b613905906138f1565b565b613910906110ee565b90565b61391c90613907565b90565b61392890611122565b90565b9050519061393882610309565b565b9060208282031261395357613950915f0161392b565b90565b61019c565b9190613986602061397061396b86613913565b61391f565b6352d1902d9061397e610192565b938492611146565b8252818061399660048201610408565b03915afa80915f92613a26575b50155f146139d75750509060016139b857505b565b6139d3905f918291634c9c8ce360e01b835260048301610705565b0390fd5b92836139f26139ec6139e7611a0b565b610306565b91610306565b03613a0757613a0292935061401d565b6139b6565b613a22845f918291632a87526960e21b835260048301610357565b0390fd5b613a4891925060203d8111613a4f575b613a4081836104fc565b81019061393a565b905f6139a3565b503d613a36565b613a5f3061383e565b613a91613a8b7f00000000000000000000000000000000000000000000000000000000000000006103ac565b916103ac565b03613a9857565b5f63703e46dd60e11b815280613ab060048201610408565b0390fd5b5f7f496e76616c6964206f726967696e616c20707269636500000000000000000000910152565b613ae86016602092610894565b613af181613ab4565b0190565b613b0a9060208101905f818303910152613adb565b90565b15613b1457565b613b1c610192565b62461bcd60e51b815280613b3260048201613af5565b0390fd5b90565b613b4d613b48613b5292613b36565b610d96565b610944565b90565b613b64613b6a91939293610944565b92610944565b91613b76838202610944565b92600160ff1b81145f831216613b99578184051490151715613b9457565b610eec565b610eec565b613baa613bb091610944565b91610944565b908115613bd25760015f038214600160ff1b821416613bcd570590565b610eec565b6124a2565b613c1e613c0d613c2393613be9611ebf565b50613c0684613c00613bfa5f612081565b91610944565b13613b0d565b839061127b565b613c18612710613b39565b90613b55565b613b9e565b90565b613c3a613c35613c3f92613b36565b610d96565b61024d565b90565b613c4a612309565b50613c7d613c6c613c59613623565b92613c6660048501610ec0565b9061246d565b613c77612710613c26565b906124b6565b9081613c91613c8b5f610fa7565b9161024d565b11613c9b575b5090565b613cb1613cac5f613cb69301610df2565b611116565b61112e565b602063a9059cbb91613cc6613647565b90613ce45f8695613cef613cd8610192565b97889687958694611146565b84526004840161244a565b03925af18015613d2f57613d03575b613c97565b613d239060203d8111613d28575b613d1b81836104fc565b81019061115b565b613cfe565b503d613d11565b6111ab565b613d3c612309565b50613d6f613d5e613d4b613623565b92613d5860028501610ec0565b9061246d565b613d69612710613c26565b906124b6565b9081613d83613d7d5f610fa7565b9161024d565b11613d8d575b5090565b6020613daa613da5613da05f8501610df2565b611116565b61112e565b613dbb600363a9059cbb9401610df2565b90613dd95f8695613de4613dcd610192565b97889687958694611146565b84526004840161244a565b03925af18015613e2457613df8575b613d89565b613e189060203d8111613e1d575b613e1081836104fc565b81019061115b565b613df3565b503d613e06565b6111ab565b613e31613e95565b613e49613e3f5f8301610df2565b915f849101612f35565b90613e7d613e777f8be0079c531659141344cd1fd0a4f28419497f9722a3daafe3b4186f6b6457e093611235565b91611235565b91613e86610192565b80613e9081610408565b0390a3565b7f9016d09d72d40fdae2fd8ceac6b6234c7706214fd39c1cd1e609a0528c19930090565b613ec1611ebf565b5080613ed5613ecf5f612081565b91610944565b12155f14613ee1575b90565b613eea90611b75565b613ede565b613ef76140f1565b90565b613f02614105565b613f0a613f0c565b565b613f14614167565b565b613f1e613efa565b565b613f3190613f2c614105565b613f33565b565b613f3c906141d6565b565b613f4790613f20565b565b613f51614105565b565b613f5b613f49565b565b613f65614105565b565b613f6f613f5d565b565b7f9b779b17422d0df92223018b32b4d1fa46e071723d6817e2486d003becc55f0090565b916020613fb6929493613faf60408201965f8301906106f8565b019061034a565b565b90613fcd613fc7838390611e8d565b156101f1565b613fd5575050565b613fef5f92839263e2517d3f60e01b845260048401613f95565b0390fd5b613ffb611e55565b506140165f61401061400b611a0b565b6141e1565b01610df2565b90565b5190565b90614027826141e4565b816140527fbc7cd75a20ee27fd9adebab32041f755214dbc6bffa90cc0225b39da2e5c2d3b91611235565b9061405b610192565b8061406581610408565b0390a261407181614019565b61408361407d5f610fa7565b9161024d565b115f1461409757614093916142b4565b505b565b50506140a1614239565b614095565b90565b6140bd6140b86140c2926140a6565b610788565b610306565b90565b6140ee7ff0c57e16840df040f15088dc2f81fe391c3923bec73e23a9662efc9c229c6a006140a9565b90565b6140f96115df565b506141026140c5565b90565b6141166141106142e3565b156101f1565b61411c57565b5f631afcd79f60e31b81528061413460048201610408565b0390fd5b614140614105565b61414861414a565b565b614165614155613f71565b5f61415e6135f9565b91016111f9565b565b61416f614138565b565b6141829061417d614105565b614184565b565b8061419f6141996141945f610e1b565b6103ac565b916103ac565b146141af576141ad90613e29565b565b6141d26141bb5f610e1b565b5f918291631e4fbdf760e01b835260048301610705565b0390fd5b6141df90614171565b565b90565b803b6141f86141f25f610fa7565b9161024d565b1461421a57614218905f61421261420d611a0b565b6141e1565b01612f35565b565b614235905f918291634c9c8ce360e01b835260048301610705565b0390fd5b3461424c6142465f610fa7565b9161024d565b1161425357565b5f63b398979f60e01b81528061426b60048201610408565b0390fd5b606090565b906142866142818361053a565b610525565b918252565b3d5f146142a65761429b3d614274565b903d5f602084013e5b565b6142ae61426f565b906142a4565b5f806142e0936142c261426f565b508390602081019051915af4906142d761428b565b90919091614301565b90565b6142eb610d33565b506142fe5f6142f8613eef565b01612ac4565b90565b906143159061430e61426f565b50156101f1565b5f146143215750614385565b61432a82614019565b61433c6143365f610fa7565b9161024d565b148061436a575b61434b575090565b614366905f918291639996b31560e01b835260048301610705565b0390fd5b50803b61437f6143795f610fa7565b9161024d565b14614343565b61438e81614019565b6143a061439a5f610fa7565b9161024d565b115f146143af57805190602001fd5b5f63d6bda27560e01b8152806143c760048201610408565b0390fdfea264697066735822122052c80d2c7d3395be834824c2a70cdcfd5f74e99d10c096f7f3e87d0bf6ae49ee64736f6c634300081c0033","linkReferences":{}},"methodIdentifiers":{"DEFAULT_ADMIN_ROLE()":"a217fddf","UPGRADE_INTERFACE_VERSION()":"ad3cb1cc","addConditionalSupportedAsset(address,address)":"402edf32","addMarket(address,int256,uint256)":"ea3878b7","collectWinnings(uint256)":"c22c57c7","getAssetPrice(address)":"b3596f07","getMarket(uint256)":"eb44fdd3","getRoleAdmin(bytes32)":"248a9ca3","getUsersMarketBet(uint256,address)":"f6cc7a31","grantRole(bytes32,address)":"2f2ff15d","hasRole(bytes32,address)":"91d14854","initialize(address,uint256,address,uint256)":"e24df754","isConditionalAssetSupported(address)":"b60b89c8","owner()":"8da5cb5b","placeBet(uint256,bool,uint256)":"1a38cac6","proxiableUUID()":"52d1902d","renounceOwnership()":"715018a6","renounceRole(bytes32,address)":"36568abe","resolveMarket(uint256)":"6399d03d","revokeRole(bytes32,address)":"d547741f","supportsInterface(bytes4)":"01ffc9a7","transferOwnership(address)":"f2fde38b","upgradeToAndCall(address,bytes)":"4f1ef286"},"id":0}