{"abi":[{"type":"constructor","inputs":[{"name":"_initialPrice","type":"int256","internalType":"int256"}],"stateMutability":"nonpayable"},{"type":"function","name":"latestRoundData","inputs":[],"outputs":[{"name":"roundId","type":"uint80","internalType":"uint80"},{"name":"answer","type":"int256","internalType":"int256"},{"name":"startedAt","type":"uint256","internalType":"uint256"},{"name":"updatedAt","type":"uint256","internalType":"uint256"},{"name":"answeredInRound","type":"uint80","internalType":"uint80"}],"stateMutability":"view"},{"type":"function","name":"mockPrice","inputs":[],"outputs":[{"name":"","type":"int256","internalType":"int256"}],"stateMutability":"view"},{"type":"function","name":"setPrice","inputs":[{"name":"_newPrice","type":"int256","internalType":"int256"}],"outputs":[],"stateMutability":"nonpayable"}],"bytecode":{"object":"0x60806040523461002f576100196100146100e0565b61015e565b610021610034565b6103a361016b82396103a390f35b61003a565b60405190565b5f80fd5b601f801991011690565b634e487b7160e01b5f52604160045260245ffd5b906100669061003e565b810190811060018060401b0382111761007e57604052565b610048565b9061009661008f610034565b928361005c565b565b5f80fd5b90565b6100a88161009c565b036100af57565b5f80fd5b905051906100c08261009f565b565b906020828203126100db576100d8915f016100b3565b90565b610098565b6100fe61050e803803806100f381610083565b9283398101906100c2565b90565b5f1b90565b906101125f1991610101565b9181191691161790565b90565b61013361012e6101389261009c565b61011c565b61009c565b90565b90565b9061015361014e61015a9261011f565b61013b565b8254610106565b9055565b610168905f61013e565b56fe60806040526004361015610013575b61022f565b61001d5f3561004c565b8063c7207e7414610047578063f7a30806146100425763feaf968c0361000e576101f6565b61014a565b6100cf565b60e01c90565b60405190565b5f80fd5b5f80fd5b5f91031261006a57565b61005c565b1c90565b90565b61008690600861008b930261006f565b610073565b90565b906100999154610076565b90565b6100a75f5f9061008e565b90565b90565b6100b6906100aa565b9052565b91906100cd905f602085019401906100ad565b565b346100ff576100df366004610060565b6100fb6100ea61009c565b6100f2610052565b918291826100ba565b0390f35b610058565b61010d816100aa565b0361011457565b5f80fd5b9050359061012582610104565b565b906020828203126101405761013d915f01610118565b90565b61005c565b5f0190565b346101785761016261015d366004610127565b610290565b61016a610052565b8061017481610145565b0390f35b610058565b69ffffffffffffffffffff1690565b6101959061017d565b9052565b90565b6101a590610199565b9052565b909594926101f4946101e36101ed926101d96080966101cf60a088019c5f89019061018c565b60208701906100ad565b604085019061019c565b606083019061019c565b019061018c565b565b3461022a57610206366004610060565b61022661021161030c565b9161021d959395610052565b958695866101a9565b0390f35b610058565b5f80fd5b5f1b90565b906102445f1991610233565b9181191691161790565b90565b61026561026061026a926100aa565b61024e565b6100aa565b90565b90565b9061028561028061028c92610251565b61026d565b8254610238565b9055565b61029a905f610270565b565b5f90565b5f90565b5f90565b90565b6102bf6102ba6102c4926102a8565b61024e565b61017d565b90565b5f1c90565b6102d86102dd916102c7565b610073565b90565b6102ea90546102cc565b90565b90565b6103046102ff610309926102ed565b61024e565b61017d565b90565b61031461029c565b5061031d6102a0565b506103266102a4565b5061032f6102a4565b5061033861029c565b50429061034c678ac7230489e800006102ab565b916103565f6102e0565b91819061036a678ac7230489e800016102f0565b9056fea264697066735822122089de3dbe929088a4e7f04d389d561bce1f3b0428470f54af2ffa77844581887664736f6c634300081c0033","linkReferences":{}},"methodIdentifiers":{"latestRoundData()":"feaf968c","mockPrice()":"c7207e74","setPrice(int256)":"f7a30806"},"id":2}