{"abi":[{"type":"constructor","inputs":[],"stateMutability":"nonpayable"},{"type":"function","name":"DEFAULT_ADMIN_ROLE","inputs":[],"outputs":[{"name":"","type":"bytes32","internalType":"bytes32"}],"stateMutability":"view"},{"type":"function","name":"UPGRADE_INTERFACE_VERSION","inputs":[],"outputs":[{"name":"","type":"string","internalType":"string"}],"stateMutability":"view"},{"type":"function","name":"addConditionalSupportedAsset","inputs":[{"name":"asset","type":"address","internalType":"address"},{"name":"oracle","type":"address","internalType":"address"}],"outputs":[],"stateMutability":"nonpayable"},{"type":"function","name":"addMarket","inputs":[{"name":"_conditionAsset","type":"address","internalType":"address"},{"name":"_conditionPercent","type":"int256","internalType":"int256"},{"name":"_resolvesAt","type":"uint256","internalType":"uint256"}],"outputs":[{"name":"marketId","type":"uint256","internalType":"uint256"}],"stateMutability":"nonpayable"},{"type":"function","name":"collectWinnings","inputs":[{"name":"marketId","type":"uint256","internalType":"uint256"}],"outputs":[{"name":"","type":"uint256","internalType":"uint256"}],"stateMutability":"nonpayable"},{"type":"function","name":"getAssetPrice","inputs":[{"name":"asset","type":"address","internalType":"address"}],"outputs":[{"name":"","type":"int256","internalType":"int256"}],"stateMutability":"view"},{"type":"function","name":"getMarket","inputs":[{"name":"marketId","type":"uint256","internalType":"uint256"}],"outputs":[{"name":"createdPrice","type":"int256","internalType":"int256"},{"name":"createdAt","type":"uint256","internalType":"uint256"},{"name":"resolvesAt","type":"uint256","internalType":"uint256"},{"name":"resolved","type":"bool","internalType":"bool"},{"name":"conditionAsset","type":"address","internalType":"address"},{"name":"upConditionPercent","type":"int256","internalType":"int256"},{"name":"upTotalBets","type":"uint256","internalType":"uint256"},{"name":"downTotalBets","type":"uint256","internalType":"uint256"},{"name":"upWins","type":"bool","internalType":"bool"},{"name":"downWins","type":"bool","internalType":"bool"},{"name":"resolverPayout","type":"uint256","internalType":"uint256"},{"name":"housePayout","type":"uint256","internalType":"uint256"},{"name":"resolvedPrice","type":"int256","internalType":"int256"}],"stateMutability":"view"},{"type":"function","name":"getRoleAdmin","inputs":[{"name":"role","type":"bytes32","internalType":"bytes32"}],"outputs":[{"name":"","type":"bytes32","internalType":"bytes32"}],"stateMutability":"view"},{"type":"function","name":"getUsersMarketBet","inputs":[{"name":"marketId","type":"uint256","internalType":"uint256"},{"name":"user","type":"address","internalType":"address"}],"outputs":[{"name":"upBets","type":"int256","internalType":"int256"},{"name":"downBets","type":"int256","internalType":"int256"}],"stateMutability":"view"},{"type":"function","name":"grantRole","inputs":[{"name":"role","type":"bytes32","internalType":"bytes32"},{"name":"account","type":"address","internalType":"address"}],"outputs":[],"stateMutability":"nonpayable"},{"type":"function","name":"hasRole","inputs":[{"name":"role","type":"bytes32","internalType":"bytes32"},{"name":"account","type":"address","internalType":"address"}],"outputs":[{"name":"","type":"bool","internalType":"bool"}],"stateMutability":"view"},{"type":"function","name":"initialize","inputs":[{"name":"_asset","type":"address","internalType":"address"},{"name":"_houseRakePercent","type":"uint256","internalType":"uint256"},{"name":"_houseRakeReceiver","type":"address","internalType":"address"},{"name":"_resolverPercent","type":"uint256","internalType":"uint256"}],"outputs":[],"stateMutability":"nonpayable"},{"type":"function","name":"isConditionalAssetSupported","inputs":[{"name":"asset","type":"address","internalType":"address"}],"outputs":[{"name":"","type":"bool","internalType":"bool"}],"stateMutability":"view"},{"type":"function","name":"owner","inputs":[],"outputs":[{"name":"","type":"address","internalType":"address"}],"stateMutability":"view"},{"type":"function","name":"placeBet","inputs":[{"name":"marketId","type":"uint256","internalType":"uint256"},{"name":"isUpBet","type":"bool","internalType":"bool"},{"name":"amount","type":"uint256","internalType":"uint256"}],"outputs":[{"name":"","type":"bool","internalType":"bool"}],"stateMutability":"nonpayable"},{"type":"function","name":"proxiableUUID","inputs":[],"outputs":[{"name":"","type":"bytes32","internalType":"bytes32"}],"stateMutability":"view"},{"type":"function","name":"renounceOwnership","inputs":[],"outputs":[],"stateMutability":"nonpayable"},{"type":"function","name":"renounceRole","inputs":[{"name":"role","type":"bytes32","internalType":"bytes32"},{"name":"callerConfirmation","type":"address","internalType":"address"}],"outputs":[],"stateMutability":"nonpayable"},{"type":"function","name":"resolveMarket","inputs":[{"name":"marketId","type":"uint256","internalType":"uint256"}],"outputs":[],"stateMutability":"nonpayable"},{"type":"function","name":"revokeRole","inputs":[{"name":"role","type":"bytes32","internalType":"bytes32"},{"name":"account","type":"address","internalType":"address"}],"outputs":[],"stateMutability":"nonpayable"},{"type":"function","name":"setHouseRakePercent","inputs":[{"name":"newRate","type":"uint256","internalType":"uint256"}],"outputs":[],"stateMutability":"nonpayable"},{"type":"function","name":"supportsInterface","inputs":[{"name":"interfaceId","type":"bytes4","internalType":"bytes4"}],"outputs":[{"name":"","type":"bool","internalType":"bool"}],"stateMutability":"view"},{"type":"function","name":"transferOwnership","inputs":[{"name":"newOwner","type":"address","internalType":"address"}],"outputs":[],"stateMutability":"nonpayable"},{"type":"function","name":"upgradeToAndCall","inputs":[{"name":"newImplementation","type":"address","internalType":"address"},{"name":"data","type":"bytes","internalType":"bytes"}],"outputs":[],"stateMutability":"payable"},{"type":"event","name":"BetPlaced","inputs":[{"name":"marketId","type":"uint256","indexed":true,"internalType":"uint256"},{"name":"better","type":"address","indexed":true,"internalType":"address"},{"name":"isUp","type":"bool","indexed":false,"internalType":"bool"},{"name":"amount","type":"uint256","indexed":false,"internalType":"uint256"}],"anonymous":false},{"type":"event","name":"BetReturned","inputs":[{"name":"marketId","type":"uint256","indexed":true,"internalType":"uint256"},{"name":"who","type":"address","indexed":true,"internalType":"address"},{"name":"amount","type":"uint256","indexed":false,"internalType":"uint256"}],"anonymous":false},{"type":"event","name":"Initialized","inputs":[{"name":"version","type":"uint64","indexed":false,"internalType":"uint64"}],"anonymous":false},{"type":"event","name":"MarketAdded","inputs":[{"name":"id","type":"uint256","indexed":true,"internalType":"uint256"},{"name":"timestamp","type":"uint256","indexed":false,"internalType":"uint256"}],"anonymous":false},{"type":"event","name":"MarketResolved","inputs":[{"name":"id","type":"uint256","indexed":true,"internalType":"uint256"},{"name":"by","type":"address","indexed":true,"internalType":"address"},{"name":"timestamp","type":"uint256","indexed":false,"internalType":"uint256"}],"anonymous":false},{"type":"event","name":"NoPayout","inputs":[{"name":"id","type":"uint256","indexed":true,"internalType":"uint256"},{"name":"by","type":"address","indexed":true,"internalType":"address"},{"name":"timestamp","type":"uint256","indexed":false,"internalType":"uint256"}],"anonymous":false},{"type":"event","name":"OwnershipTransferred","inputs":[{"name":"previousOwner","type":"address","indexed":true,"internalType":"address"},{"name":"newOwner","type":"address","indexed":true,"internalType":"address"}],"anonymous":false},{"type":"event","name":"RoleAdminChanged","inputs":[{"name":"role","type":"bytes32","indexed":true,"internalType":"bytes32"},{"name":"previousAdminRole","type":"bytes32","indexed":true,"internalType":"bytes32"},{"name":"newAdminRole","type":"bytes32","indexed":true,"internalType":"bytes32"}],"anonymous":false},{"type":"event","name":"RoleGranted","inputs":[{"name":"role","type":"bytes32","indexed":true,"internalType":"bytes32"},{"name":"account","type":"address","indexed":true,"internalType":"address"},{"name":"sender","type":"address","indexed":true,"internalType":"address"}],"anonymous":false},{"type":"event","name":"RoleRevoked","inputs":[{"name":"role","type":"bytes32","indexed":true,"internalType":"bytes32"},{"name":"account","type":"address","indexed":true,"internalType":"address"},{"name":"sender","type":"address","indexed":true,"internalType":"address"}],"anonymous":false},{"type":"event","name":"Upgraded","inputs":[{"name":"implementation","type":"address","indexed":true,"internalType":"address"}],"anonymous":false},{"type":"event","name":"WinningsCollected","inputs":[{"name":"marketId","type":"uint256","indexed":true,"internalType":"uint256"},{"name":"winner","type":"address","indexed":true,"internalType":"address"},{"name":"amount","type":"uint256","indexed":false,"internalType":"uint256"}],"anonymous":false},{"type":"error","name":"AccessControlBadConfirmation","inputs":[]},{"type":"error","name":"AccessControlUnauthorizedAccount","inputs":[{"name":"account","type":"address","internalType":"address"},{"name":"neededRole","type":"bytes32","internalType":"bytes32"}]},{"type":"error","name":"AddressEmptyCode","inputs":[{"name":"target","type":"address","internalType":"address"}]},{"type":"error","name":"ERC1967InvalidImplementation","inputs":[{"name":"implementation","type":"address","internalType":"address"}]},{"type":"error","name":"ERC1967NonPayable","inputs":[]},{"type":"error","name":"FailedCall","inputs":[]},{"type":"error","name":"InvalidInitialization","inputs":[]},{"type":"error","name":"NotInitializing","inputs":[]},{"type":"error","name":"OwnableInvalidOwner","inputs":[{"name":"owner","type":"address","internalType":"address"}]},{"type":"error","name":"OwnableUnauthorizedAccount","inputs":[{"name":"account","type":"address","internalType":"address"}]},{"type":"error","name":"ReentrancyGuardReentrantCall","inputs":[]},{"type":"error","name":"UUPSUnauthorizedCallContext","inputs":[]},{"type":"error","name":"UUPSUnsupportedProxiableUUID","inputs":[{"name":"slot","type":"bytes32","internalType":"bytes32"}]}],"bytecode":{"object":"0x60a06040523461003e5761001161004d565b610019610043565b6144ca6102c882396080518181816138ef015281816139540152613afb01526144ca90f35b610049565b60405190565b5f80fd5b6100556100a1565b61005d61019e565b565b60018060a01b031690565b90565b61008161007c6100869261005f565b61006a565b61005f565b90565b6100929061006d565b90565b61009e90610089565b90565b6100aa30610095565b608052565b60401c90565b60ff1690565b6100c76100cc916100af565b6100b5565b90565b6100d990546100bb565b90565b5f0190565b5f1c90565b60018060401b031690565b6100fd610102916100e1565b6100e6565b90565b61010f90546100f1565b90565b60018060401b031690565b5f1b90565b9061013360018060401b039161011d565b9181191691161790565b61015161014c61015692610112565b61006a565b610112565b90565b90565b9061017161016c6101789261013d565b610159565b8254610122565b9055565b61018590610112565b9052565b919061019c905f6020850194019061017c565b565b6101a6610256565b6101b15f82016100cf565b61023a576101c05f8201610105565b6101d86101d260018060401b03610112565b91610112565b036101e1575b50565b6101f4905f60018060401b03910161015c565b60018060401b036102317fc7f505b2f371ae2175ee4913f4499e1f2633a7b5936321eed1cdaeb6115181d291610228610043565b91829182610189565b0390a15f6101de565b5f63f92ee8a960e01b815280610252600482016100dc565b0390fd5b61025e6102b3565b90565b5f90565b90565b90565b61027f61027a61028492610265565b61011d565b610268565b90565b6102b07ff0c57e16840df040f15088dc2f81fe391c3923bec73e23a9662efc9c229c6a0061026b565b90565b6102bb610261565b506102c4610287565b9056fe60806040526004361015610013575b610d72565b61001d5f3561019c565b806301ffc9a71461019757806303d8f0c1146101925780631a38cac61461018d578063248a9ca3146101885780632f2ff15d1461018357806336568abe1461017e578063402edf32146101795780634f1ef2861461017457806352d1902d1461016f5780636399d03d1461016a578063715018a6146101655780638da5cb5b1461016057806391d148541461015b578063a217fddf14610156578063ad3cb1cc14610151578063b3596f071461014c578063b60b89c814610147578063c22c57c714610142578063d547741f1461013d578063e24df75414610138578063ea3878b714610133578063eb44fdd31461012e578063f2fde38b146101295763f6cc7a310361000e57610d3b565b610cb8565b610c73565b610b7b565b610ae7565b610a6d565b610a38565b6109e1565b6109ac565b610934565b610803565b610792565b61075d565b610708565b6106d5565b6106a0565b610667565b610503565b6104a2565b61046e565b6103d2565b610336565b6102a6565b610228565b60e01c90565b60405190565b5f80fd5b5f80fd5b5f80fd5b63ffffffff60e01b1690565b6101c9816101b4565b036101d057565b5f80fd5b905035906101e1826101c0565b565b906020828203126101fc576101f9915f016101d4565b90565b6101ac565b151590565b61020f90610201565b9052565b9190610226905f60208501940190610206565b565b346102585761025461024361023e3660046101e3565b610d7a565b61024b6101a2565b91829182610213565b0390f35b6101a8565b90565b6102698161025d565b0361027057565b5f80fd5b9050359061028182610260565b565b9060208282031261029c57610299915f01610274565b90565b6101ac565b5f0190565b346102d4576102be6102b9366004610283565b610e3b565b6102c66101a2565b806102d0816102a1565b0390f35b6101a8565b6102e281610201565b036102e957565b5f80fd5b905035906102fa826102d9565b565b90916060828403126103315761032e610317845f8501610274565b9361032581602086016102ed565b93604001610274565b90565b6101ac565b346103675761036361035261034c3660046102fc565b91611632565b61035a6101a2565b91829182610213565b0390f35b6101a8565b90565b6103788161036c565b0361037f57565b5f80fd5b905035906103908261036f565b565b906020828203126103ab576103a8915f01610383565b90565b6101ac565b6103b99061036c565b9052565b91906103d0905f602085019401906103b0565b565b34610402576103fe6103ed6103e8366004610392565b611692565b6103f56101a2565b918291826103bd565b0390f35b6101a8565b60018060a01b031690565b61041b90610407565b90565b61042781610412565b0361042e57565b5f80fd5b9050359061043f8261041e565b565b9190604083820312610469578061045d610466925f8601610383565b93602001610432565b90565b6101ac565b3461049d57610487610481366004610441565b906116e6565b61048f6101a2565b80610499816102a1565b0390f35b6101a8565b346104d1576104bb6104b5366004610441565b906116f2565b6104c36101a2565b806104cd816102a1565b0390f35b6101a8565b91906040838203126104fe57806104f26104fb925f8601610432565b93602001610432565b90565b6101ac565b346105325761051c6105163660046104d6565b90611a00565b6105246101a2565b8061052e816102a1565b0390f35b6101a8565b5f80fd5b5f80fd5b601f801991011690565b634e487b7160e01b5f52604160045260245ffd5b906105679061053f565b810190811067ffffffffffffffff82111761058157604052565b610549565b906105996105926101a2565b928361055d565b565b67ffffffffffffffff81116105b9576105b560209161053f565b0190565b610549565b90825f939282370152565b909291926105de6105d98261059b565b610586565b938185526020850190828401116105fa576105f8926105be565b565b61053b565b9080601f8301121561061d5781602061061a933591016105c9565b90565b610537565b9190916040818403126106625761063b835f8301610432565b92602082013567ffffffffffffffff811161065d5761065a92016105ff565b90565b6101b0565b6101ac565b61067b610675366004610622565b90611a35565b6106836101a2565b8061068d816102a1565b0390f35b5f91031261069b57565b6101ac565b346106d0576106b0366004610691565b6106cc6106bb611aac565b6106c36101a2565b918291826103bd565b0390f35b6101a8565b34610703576106ed6106e8366004610283565b611ecf565b6106f56101a2565b806106ff816102a1565b0390f35b6101a8565b3461073657610718366004610691565b610720611eff565b6107286101a2565b80610732816102a1565b0390f35b6101a8565b61074490610412565b9052565b919061075b905f6020850194019061073b565b565b3461078d5761076d366004610691565b610789610778611f0d565b6107806101a2565b91829182610748565b0390f35b6101a8565b346107c3576107bf6107ae6107a8366004610441565b90611f41565b6107b66101a2565b91829182610213565b0390f35b6101a8565b90565b5f1b90565b6107e46107df6107e9926107c8565b6107cb565b61036c565b90565b6107f55f6107d0565b90565b6108006107ec565b90565b3461083357610813366004610691565b61082f61081e6107f8565b6108266101a2565b918291826103bd565b0390f35b6101a8565b67ffffffffffffffff81116108565761085260209161053f565b0190565b610549565b9061086d61086883610838565b610586565b918252565b5f7f352e302e30000000000000000000000000000000000000000000000000000000910152565b6108a3600561085b565b906108b060208301610872565b565b6108ba610899565b90565b6108c56108b2565b90565b6108d06108bd565b90565b5190565b60209181520190565b90825f9392825e0152565b61090a61091360209361091893610901816108d3565b938480936108d7565b958691016108e0565b61053f565b0190565b6109319160208201915f8184039101526108eb565b90565b3461096457610944366004610691565b61096061094f6108c8565b6109576101a2565b9182918261091c565b0390f35b6101a8565b906020828203126109825761097f915f01610432565b90565b6101ac565b90565b61099390610987565b9052565b91906109aa905f6020850194019061098a565b565b346109dc576109d86109c76109c2366004610969565b612253565b6109cf6101a2565b91829182610997565b0390f35b6101a8565b34610a1157610a0d6109fc6109f7366004610969565b612372565b610a046101a2565b91829182610213565b0390f35b6101a8565b610a1f9061025d565b9052565b9190610a36905f60208501940190610a16565b565b34610a6857610a64610a53610a4e366004610283565b612af3565b610a5b6101a2565b91829182610a23565b0390f35b6101a8565b34610a9c57610a86610a80366004610441565b90612b31565b610a8e6101a2565b80610a98816102a1565b0390f35b6101a8565b608081830312610ae257610ab7825f8301610432565b92610adf610ac88460208501610274565b93610ad68160408601610432565b93606001610274565b90565b6101ac565b34610b1957610b03610afa366004610aa1565b929190916130f0565b610b0b6101a2565b80610b15816102a1565b0390f35b6101a8565b610b2781610987565b03610b2e57565b5f80fd5b90503590610b3f82610b1e565b565b9091606082840312610b7657610b73610b5c845f8501610432565b93610b6a8160208601610b32565b93604001610274565b90565b6101ac565b34610bac57610ba8610b97610b91366004610b41565b9161338d565b610b9f6101a2565b91829182610a23565b0390f35b6101a8565b9a98969492909d9c9b99979593916101a08c019e5f8d01610bd19161098a565b60208c01610bde91610a16565b60408b01610beb91610a16565b60608a01610bf891610206565b60808901610c059161073b565b60a08801610c129161098a565b60c08701610c1f91610a16565b60e08601610c2c91610a16565b6101008501610c3a91610206565b6101208401610c4891610206565b6101408301610c5691610a16565b6101608201610c6491610a16565b61018001610c719161098a565b565b34610cb357610caf610c8e610c89366004610283565b6133a3565b99610ca69d9b9d9991999892989793979694966101a2565b9d8e9d8e610bb1565b0390f35b6101a8565b34610ce657610cd0610ccb366004610969565b61354e565b610cd86101a2565b80610ce2816102a1565b0390f35b6101a8565b9190604083820312610d135780610d07610d10925f8601610274565b93602001610432565b90565b6101ac565b916020610d39929493610d3260408201965f83019061098a565b019061098a565b565b34610d6d57610d54610d4e366004610ceb565b90613559565b90610d69610d606101a2565b92839283610d18565b0390f35b6101a8565b5f80fd5b5f90565b610d82610d76565b5080610d9d610d97637965db0b60e01b6101b4565b916101b4565b14908115610daa575b5090565b610db491506135bc565b5f610da6565b610dcb90610dc66135e2565b610e25565b565b90610dd95f19916107cb565b9181191691161790565b90565b610dfa610df5610dff9261025d565b610de3565b61025d565b90565b90565b90610e1a610e15610e2192610de6565b610e02565b8254610dcd565b9055565b610e39906002610e33613630565b01610e05565b565b610e4490610dba565b565b90610e5a939291610e55613680565b6113b0565b90610e6361370c565b565b90610e6f90610de6565b5f5260205260405f2090565b90565b60081c90565b60018060a01b031690565b610e9b610ea091610e7e565b610e84565b90565b610ead9054610e8f565b90565b610ec4610ebf610ec9926107c8565b610de3565b610407565b90565b610ed590610eb0565b90565b5f7f496e76616c6964206d61726b6574000000000000000000000000000000000000910152565b610f0c600e6020926108d7565b610f1581610ed8565b0190565b610f2e9060208101905f818303910152610eff565b90565b15610f3857565b610f406101a2565b62461bcd60e51b815280610f5660048201610f19565b0390fd5b5f1c90565b90565b610f6e610f7391610f5a565b610f5f565b90565b610f809054610f62565b90565b90565b610f9a610f95610f9f92610f83565b610de3565b61025d565b90565b634e487b7160e01b5f52601160045260245ffd5b610fc5610fcb9193929361025d565b9261025d565b8203918211610fd657565b610fa2565b5f7f42657474696e6720636c6f736564000000000000000000000000000000000000910152565b61100f600e6020926108d7565b61101881610fdb565b0190565b6110319060208101905f818303910152611002565b90565b1561103b57565b6110436101a2565b62461bcd60e51b8152806110596004820161101c565b0390fd5b61107161106c611076926107c8565b610de3565b61025d565b90565b5f7f496e76616c69642062657420616d6f756e740000000000000000000000000000910152565b6110ad60126020926108d7565b6110b681611079565b0190565b6110cf9060208101905f8183039101526110a0565b90565b156110d957565b6110e16101a2565b62461bcd60e51b8152806110f7600482016110ba565b0390fd5b60ff1690565b61110d61111291610f5a565b6110fb565b90565b61111f9054611101565b90565b5f7f4d61726b6574207265736f6c7665640000000000000000000000000000000000910152565b611156600f6020926108d7565b61115f81611122565b0190565b6111789060208101905f818303910152611149565b90565b1561118257565b61118a6101a2565b62461bcd60e51b8152806111a060048201611163565b0390fd5b6111b06111b591610f5a565b610e84565b90565b6111c290546111a4565b90565b6111d96111d46111de92610407565b610de3565b610407565b90565b6111ea906111c5565b90565b6111f6906111e1565b90565b611202906111c5565b90565b61120e906111f9565b90565b61121a906111f9565b90565b60e01b90565b90505190611230826102d9565b565b9060208282031261124b57611248915f01611223565b90565b6101ac565b604090611279611280949695939661126f60608401985f85019061073b565b602083019061073b565b0190610a16565b565b61128a6101a2565b3d5f823e3d90fd5b6112a16112a79193929361025d565b9261025d565b82018092116112b257565b610fa2565b6112cb6112c66112d09261025d565b610de3565b610987565b90565b6112dc906111f9565b90565b906112e9906112d3565b5f5260205260405f2090565b90565b61130461130991610f5a565b6112f5565b90565b61131690546112f8565b90565b61132861132e91939293610987565b92610987565b808301925f8285121581831216928512911215161761134957565b610fa2565b61136261135d61136792610987565b610de3565b610987565b90565b90565b9061138261137d6113899261134e565b61136a565b8254610dcd565b9055565b9160206113ae9294936113a760408201965f830190610206565b0190610a16565b565b506113b9613630565b61148f61148a6114855f6113d96113d4600587018890610e65565b610e7b565b9461140a6113e960038801610ea3565b6114036113fd6113f886610ecc565b610412565b91610412565b1415610f31565b6114464261144061143a61143561142360028c01610f76565b61142f62015180610f86565b90610fb6565b61025d565b9161025d565b10611034565b6114628961145c6114568561105d565b9161025d565b116110d2565b61147f61147a61147460038901611115565b15610201565b61117b565b016111b8565b6111ed565b611205565b60206323b872dd9161149f613729565b906114c65f6114ad30611211565b956114d18b6114ba6101a2565b9889978896879561121d565b855260048501611250565b03925af1801561162d57611601575b50825f1461159f576115449061150c85611506600584019161150183610f76565b611292565b90610e05565b61153e5f61152e600b61151e896112b7565b9401611528613729565b906112df565b01916115398361130c565b611319565b9061136d565b5b61154d613729565b919261158261157c7f4af71b021e799c62c158bd54636ca8da2fa26115a21a2dc6efe486ec104fd15f93610de6565b936112d3565b9361159761158e6101a2565b9283928361138d565b0390a3600190565b6115fc906115c3856115bd60068401916115b883610f76565b611292565b90610e05565b6115f660016115e6600b6115d6896112b7565b94016115e0613729565b906112df565b01916115f18361130c565b611319565b9061136d565b611545565b6116219060203d8111611626575b611619818361055d565b810190611232565b6114e0565b503d61160f565b611282565b906116459291611640610d76565b610e46565b90565b5f90565b6116559061036c565b90565b906116629061164c565b5f5260205260405f2090565b90565b61167d61168291610f5a565b61166e565b90565b61168f9054611671565b90565b60016116b36116b9926116a3611648565b505f6116ad613736565b01611658565b01611685565b90565b906116d7916116d26116cd82611692565b61375a565b6116d9565b565b906116e39161376e565b50565b906116f0916116bc565b565b908061170d611707611702613729565b610412565b91610412565b0361171e5761171b91613825565b50565b5f63334bd91960e11b815280611736600482016102a1565b0390fd5b9061174c916117476135e2565b611974565b565b5f7f496e76616c696420617373657400000000000000000000000000000000000000910152565b611782600d6020926108d7565b61178b8161174e565b0190565b6117a49060208101905f818303910152611775565b90565b156117ae57565b6117b66101a2565b62461bcd60e51b8152806117cc6004820161178f565b0390fd5b5f7f496e76616c6964206f7261636c65000000000000000000000000000000000000910152565b611804600e6020926108d7565b61180d816117d0565b0190565b6118269060208101905f8183039101526117f7565b90565b1561183057565b6118386101a2565b62461bcd60e51b81528061184e60048201611811565b0390fd5b61185c6040610586565b90565b9061186990610201565b9052565b9061187790610412565b9052565b90611885906112d3565b5f5260205260405f2090565b61189b9051610201565b90565b906118aa60ff916107cb565b9181191691161790565b6118bd90610201565b90565b90565b906118d86118d36118df926118b4565b6118c0565b825461189e565b9055565b6118ed9051610412565b90565b60081b90565b90611909610100600160a81b03916118f0565b9181191691161790565b90565b9061192b611926611932926112d3565b611913565b82546118f6565b9055565b9061196060205f61196694611958828201611952848801611891565b906118c3565b0192016118e3565b90611916565b565b9061197291611936565b565b906119f96119fe926119a18161199a61199461198f5f610ecc565b610412565b91610412565b14156117a7565b6119c6836119bf6119b96119b45f610ecc565b610412565b91610412565b1415611829565b6119e96001936119e06119d7611852565b955f870161185f565b6020850161186d565b60066119f3613630565b0161187b565b611968565b565b90611a0a9161173a565b565b90611a1e91611a196138de565b611a20565b565b90611a3391611a2e81613990565b6139ec565b565b90611a3f91611a0c565b565b611a5290611a4d613aea565b611aa0565b90565b90565b611a6c611a67611a7192611a55565b6107cb565b61036c565b90565b611a9d7f360894a13ba1a3210667c828492db98dca3e2076cc3735a920a3ca505d382bbc611a58565b90565b50611aa9611a74565b90565b611abc611ab7611648565b611a41565b90565b611ad090611acb613680565b611c54565b611ad861370c565b565b5f7f416c7265616479207265736f6c76656400000000000000000000000000000000910152565b611b0e60106020926108d7565b611b1781611ada565b0190565b611b309060208101905f818303910152611b01565b90565b15611b3a57565b611b426101a2565b62461bcd60e51b815280611b5860048201611b1b565b0390fd5b5f7f546f6f206561726c7920746f207265736f6c7665000000000000000000000000910152565b611b9060146020926108d7565b611b9981611b5c565b0190565b611bb29060208101905f818303910152611b83565b90565b15611bbc57565b611bc46101a2565b62461bcd60e51b815280611bda60048201611b9d565b0390fd5b611be790610987565b600160ff1b8114611bf7575f0390565b610fa2565b90611c0961ff00916118f0565b9181191691161790565b90611c28611c23611c2f926118b4565b6118c0565b8254611bfc565b9055565b611c3f611c4491610e7e565b6110fb565b90565b611c519054611c33565b90565b611dac611c74611c6f6005611c67613630565b018490610e65565b610e7b565b611c91611c8c611c8660038401611115565b15610201565b611b33565b611cb942611cb2611cac611ca760028601610f76565b61025d565b9161025d565b1015611bb5565b611ce9611cc860038301610ea3565b611ce2611cdc611cd75f610ecc565b610412565b91610412565b1415610f31565b611d7c611d00611cfb60038401610ea3565b612253565b611d22611d18611d115f860161130c565b8390613ca0565b91600a850161136d565b611d4d81611d43611d3d611d386004880161130c565b610987565b91610987565b13600785016118c3565b611d72611d6c611d67611d626004870161130c565b611bde565b610987565b91610987565b1260078301611c13565b611d8860078201611115565b8015611ebd575b611e03575b611da26001600383016118c3565b6002429101610e05565b611db4613729565b4291611dfe611dec611de67facef513e023ec1abbd3ca7f9f777a61f3806bf0118d30302223ef3a4c9afb28493610de6565b936112d3565b93611df56101a2565b91829182610a23565b0390a3565b611e0f60078201611115565b5f14611ea657611e4b611e42611e2760068401610f76565b5b611e3d611e3482613d0b565b60088601610e05565b613dfd565b60098301610e05565b82611e54613729565b4291611e9e611e8c611e867f2b8f8747ea18ee79509fd9c599eb5cffc137894b58d88ba1a5d008aa550d127b93610de6565b936112d3565b93611e956101a2565b91829182610a23565b0390a3611d94565b611e4b611e42611eb860058401610f76565b611e28565b50611eca60078201611c47565b611d8f565b611ed890611abf565b565b611ee26135e2565b611eea611eec565b565b611efd611ef85f610ecc565b613ef2565b565b611f07611eda565b565b5f90565b611f15611f09565b50611f285f611f22613f5e565b016111b8565b90565b90611f35906112d3565b5f5260205260405f2090565b611f70915f611f65611f6b93611f55610d76565b5082611f5f613736565b01611658565b01611f2b565b611115565b90565b5f90565b611f816040610586565b90565b90611fba611fb15f611f94611f77565b94611fab611fa3838301611115565b83880161185f565b01610ea3565b6020840161186d565b565b611fc590611f84565b90565b5f7f556e737570706f72746564206173736574000000000000000000000000000000910152565b611ffc60116020926108d7565b61200581611fc8565b0190565b61201e9060208101905f818303910152611fef565b90565b1561202857565b6120306101a2565b62461bcd60e51b81528061204660048201612009565b0390fd5b612053906111c5565b90565b61205f9061204a565b90565b61206b906111f9565b90565b69ffffffffffffffffffff1690565b6120868161206e565b0361208d57565b5f80fd5b9050519061209e8261207d565b565b905051906120ad82610b1e565b565b905051906120bc82610260565b565b919060a08382031261210f576120d6815f8501612091565b926120e482602083016120a0565b9261210c6120f584604085016120af565b9361210381606086016120af565b93608001612091565b90565b6101ac565b61212861212361212d926107c8565b610de3565b610987565b90565b5f7f496e76616c696420707269636500000000000000000000000000000000000000910152565b612164600d6020926108d7565b61216d81612130565b0190565b6121869060208101905f818303910152612157565b90565b1561219057565b6121986101a2565b62461bcd60e51b8152806121ae60048201612171565b0390fd5b90565b6121c96121c46121ce926121b2565b610de3565b61025d565b90565b5f7f5374616c65207072696365000000000000000000000000000000000000000000910152565b612205600b6020926108d7565b61220e816121d1565b0190565b6122279060208101905f8183039101526121f8565b90565b1561223157565b6122396101a2565b62461bcd60e51b81528061224f60048201612212565b0390fd5b60a06122ab6122a66122a160206122886122836122c197612272611f73565b50600661227d613630565b0161187b565b611fbc565b61229b6122965f8301611891565b612021565b016118e3565b612056565b612062565b63feaf968c906122b96101a2565b93849261121d565b825281806122d1600482016102a1565b03915afa801561236d575f8080809492505091612331575b5061231461232e919261230e846123086123025f612114565b91610987565b13612189565b42610fb6565b612328612322611c206121b5565b9161025d565b1061222a565b90565b612314925061232e915061235b9060a03d8111612366575b612353818361055d565b8101906120be565b5094505091506122e9565b503d612349565b611282565b5f61239361239992612382610d76565b50600661238d613630565b0161187b565b01611115565b90565b5f90565b906123b2916123ad613680565b61256b565b906123bb61370c565b565b5f7f4d61726b6574206e6f74207265736f6c76656400000000000000000000000000910152565b6123f160136020926108d7565b6123fa816123bd565b0190565b6124139060208101905f8183039101526123e4565b90565b1561241d57565b6124256101a2565b62461bcd60e51b81528061243b600482016123fe565b0390fd5b5f7f4e6f206265747320706c61636564000000000000000000000000000000000000910152565b612473600e6020926108d7565b61247c8161243f565b0190565b6124959060208101905f818303910152612466565b90565b1561249f57565b6124a76101a2565b62461bcd60e51b8152806124bd60048201612480565b0390fd5b6124d56124d06124da92610987565b610de3565b61025d565b90565b9160206124fe9294936124f760408201965f83019061073b565b0190610a16565b565b61250f6125159193929361025d565b9261025d565b9161252183820261025d565b92818404149015171561253057565b610fa2565b634e487b7160e01b5f52601260045260245ffd5b61255561255b9161025d565b9161025d565b908115612566570490565b612535565b50612574613630565b9061258b612586600584018390610e65565b610e7b565b916125a061259b60038501611115565b612416565b6125bf5f6125b9600b86016125b3613729565b906112df565b0161130c565b6125d16125cb5f612114565b91610987565b14158015612ab4575b6125e390612498565b6125ef60078401611115565b80612a7c575b61260160078501611c47565b80612a3e575b612612909115610201565b9081612a2d575b506128865761274361273e5f6127489361263560078801611115565b821461286f576127386126e961264d60058a01610f76565b5b61265a60078b01611115565b851461285b576126e461266f60068c01610f76565b5b61267c60078d01611115565b871461281a576126de8c6126d860096126d16126bd6126b86126b38e6126ad600b89016126a7613729565b906112df565b0161130c565b613f82565b6124c1565b5b956126cb60088601610f76565b90610fb6565b9201610f76565b90610fb6565b90612500565b612549565b976127126126f685612114565b8561270c600b8501612706613729565b906112df565b0161136d565b6001612732600b61272287612114565b930161272c613729565b906112df565b0161136d565b016111b8565b6111ed565b611205565b602063a9059cbb91612758613729565b906127765f879561278161276a6101a2565b9788968795869461121d565b8452600484016124dd565b03925af18015612815576127e9575b50612799613729565b82916127e36127d16127cb7fbeb83c766f929cd13ff8dd36bf2edc610ee368ba90d3613e2dded0e6d99f92e293610de6565b936112d3565b936127da6101a2565b91829182610a23565b0390a390565b6128099060203d811161280e575b612801818361055d565b810190611232565b612790565b503d6127f7565b611282565b6126de8c6126d860096126d161285661285161284c6001612846600b8901612840613729565b906112df565b0161130c565b613f82565b6124c1565b6126be565b6126e461286a60058c01610f76565b612670565b6127386126e961288160068a01610f76565b61264e565b6129566129515f61295b9361294b6128fc886128f66128f16128ec60016128e6600b6128d66128d16128cc8d6128c6858c016128c0613729565b906112df565b0161130c565b613f82565b6124c1565b96016128e0613729565b906112df565b0161130c565b613f82565b6124c1565b90611292565b9761292561290985612114565b8561291f600b8501612919613729565b906112df565b0161136d565b6001612945600b61293587612114565b930161293f613729565b906112df565b0161136d565b016111b8565b6111ed565b611205565b602063a9059cbb9161296b613729565b906129895f879561299461297d6101a2565b9788968795869461121d565b8452600484016124dd565b03925af18015612a28576129fc575b506129ac613729565b82916129f66129e46129de7f757db202439744d74cb7a1a6abc7549f4a49e7efba6f870c33e2bf48ef343cb393610de6565b936112d3565b936129ed6101a2565b91829182610a23565b0390a390565b612a1c9060203d8111612a21575b612a14818361055d565b810190611232565b6129a3565b503d612a0a565b611282565b612a38915015610201565b5f612619565b50612612612a626001612a5c600b8801612a56613729565b906112df565b0161130c565b612a74612a6e5f612114565b91610987565b129050612607565b50612a9c5f612a96600b8601612a90613729565b906112df565b0161130c565b612aae612aa85f612114565b91610987565b136125f5565b506125e3612ad86001612ad2600b8701612acc613729565b906112df565b0161130c565b612aea612ae45f612114565b91610987565b141590506125da565b612b0490612aff61239c565b6123a0565b90565b90612b2291612b1d612b1882611692565b61375a565b612b24565b565b90612b2e91613825565b50565b90612b3b91612b07565b565b60401c90565b612b4f612b5491612b3d565b6110fb565b90565b612b619054612b43565b90565b67ffffffffffffffff1690565b612b7d612b8291610f5a565b612b64565b90565b612b8f9054612b71565b90565b67ffffffffffffffff1690565b612bb3612bae612bb8926107c8565b610de3565b612b92565b90565b90565b612bd2612bcd612bd792612bbb565b610de3565b612b92565b90565b612be3906111f9565b90565b90612bf967ffffffffffffffff916107cb565b9181191691161790565b612c17612c12612c1c92612b92565b610de3565b612b92565b90565b90565b90612c37612c32612c3e92612c03565b612c1f565b8254612be6565b9055565b60401b90565b90612c5c68ff000000000000000091612c42565b9181191691161790565b90612c7b612c76612c82926118b4565b6118c0565b8254612c48565b9055565b612c8f90612bbe565b9052565b9190612ca6905f60208501940190612c86565b565b909192612cb3613fb8565b93612cc8612cc25f8701612b57565b15610201565b93612cd45f8701612b85565b80612ce7612ce15f612b9f565b91612b92565b1480612e01575b90612d02612cfc6001612bbe565b91612b92565b1480612dd9575b612d14909115610201565b9081612dc8575b50612dac57612d4493612d39612d316001612bbe565b5f8901612c22565b85612d9a575b612fe8565b612d4c575b50565b612d59905f809101612c66565b6001612d917fc7f505b2f371ae2175ee4913f4499e1f2633a7b5936321eed1cdaeb6115181d291612d886101a2565b91829182612c93565b0390a15f612d49565b612da760015f8901612c66565b612d3f565b5f63f92ee8a960e01b815280612dc4600482016102a1565b0390fd5b612dd3915015610201565b5f612d1b565b50612d14612de630612bda565b3b612df9612df35f61105d565b9161025d565b149050612d09565b5085612cee565b5f7f496e76616c696420726563656976657200000000000000000000000000000000910152565b612e3c60106020926108d7565b612e4581612e08565b0190565b612e5e9060208101905f818303910152612e2f565b90565b15612e6857565b612e706101a2565b62461bcd60e51b815280612e8660048201612e49565b0390fd5b90565b612ea1612e9c612ea692612e8a565b610de3565b61025d565b90565b5f7f486f7573652072616b6520746f6f206869676800000000000000000000000000910152565b612edd60136020926108d7565b612ee681612ea9565b0190565b612eff9060208101905f818303910152612ed0565b90565b15612f0957565b612f116101a2565b62461bcd60e51b815280612f2760048201612eea565b0390fd5b5f7f5265736f6c7665722063757420746f6f20686967680000000000000000000000910152565b612f5f60156020926108d7565b612f6881612f2b565b0190565b612f819060208101905f818303910152612f52565b90565b15612f8b57565b612f936101a2565b62461bcd60e51b815280612fa960048201612f6c565b0390fd5b90612fbe60018060a01b03916107cb565b9181191691161790565b90612fdd612fd8612fe4926112d3565b611913565b8254612fad565b9055565b91926130cd6130d4946130c460049461301c8761301561300f61300a5f610ecc565b610412565b91610412565b14156117a7565b6130418361303a61303461302f5f610ecc565b610412565b91610412565b1415612e61565b613060816130596130536103e8612e8d565b9161025d565b1115612f02565b61307f856130786130726103e8612e8d565b9161025d565b1115612f84565b613087613fdf565b613097613092613729565b614007565b61309f61401c565b6130a7614030565b6130bb6130b2613630565b975f8901612fc8565b60028701610e05565b60038501612fc8565b9101610e05565b6130ed6130df6107ec565b6130e7613729565b9061376e565b50565b906130fc939291612ca8565b565b9061311293929161310d613680565b61325c565b9061311b61370c565b565b90565b61313461312f6131399261311d565b610de3565b610987565b90565b5f7f436f6e646974696f6e20746f6f206c6f77000000000000000000000000000000910152565b61317060116020926108d7565b6131798161313c565b0190565b6131929060208101905f818303910152613163565b90565b1561319c57565b6131a46101a2565b62461bcd60e51b8152806131ba6004820161317d565b0390fd5b5f7f5265736f6c7574696f6e20746f6f20736f6f6e00000000000000000000000000910152565b6131f260136020926108d7565b6131fb816131be565b0190565b6132149060208101905f8183039101526131e5565b90565b1561321e57565b6132266101a2565b62461bcd60e51b81528061323c600482016131ff565b0390fd5b6132499061025d565b5f1981146132575760010190565b610fa2565b613345926004915061327561327084612372565b612021565b6132938161328c6132866064613120565b91610987565b1215613195565b6132c4856132be6132b86132b3426132ad62015180610f86565b90611292565b61025d565b9161025d565b11613217565b61333e6132cf613630565b95613328600188016132f36132e382610f76565b916132ed83613240565b90610e05565b9761332061331661331160056133088b612253565b94018c90610e65565b610e7b565b9760038901611916565b5f870161136d565b6133354260018701610e05565b60028501610e05565b910161136d565b8042906133876133757fb5b9f12f559f8d5c9b50e5480dc62372c96159810e7e5293896b6f0a13b7cb7892610de6565b9261337e6101a2565b91829182610a23565b0390a290565b906133a0929161339b61239c565b6130fe565b90565b61342f613434916133b2611f73565b506133bb61239c565b506133c461239c565b506133cd610d76565b506133d6611f09565b506133df611f73565b506133e861239c565b506133f161239c565b506133fa610d76565b50613403610d76565b5061340c61239c565b5061341561239c565b5061341e611f73565b506005613429613630565b01610e65565b610e7b565b61343f5f820161130c565b61344b60018301610f76565b9261345860028401610f76565b9261346560038201611115565b9261347260038301610ea3565b9261347f6004840161130c565b9261348c60058201610f76565b9261349960068301610f76565b926134a660078401611115565b926134b360078201611c47565b926134c060088301610f76565b926134d9600a6134d260098601610f76565b940161130c565b919c9b9a99989796959493929190565b6134fa906134f56135e2565b6134fc565b565b8061351761351161350c5f610ecc565b610412565b91610412565b146135275761352590613ef2565b565b61354a6135335f610ecc565b5f918291631e4fbdf760e01b835260048301610748565b0390fd5b613557906134e9565b565b60016135b361359261358d6135b994969596613573611f73565b5061357c611f73565b506005613587613630565b01610e65565b610e7b565b94600b6135ac5f6135a6838a0185906112df565b0161130c565b96016112df565b0161130c565b90565b6135c4610d76565b506135de6135d86301ffc9a760e01b6101b4565b916101b4565b1490565b6135ea611f0d565b6136036135fd6135f8613729565b610412565b91610412565b0361360a57565b61362c613615613729565b5f91829163118cdaa760e01b835260048301610748565b0390fd5b7f078b9a5a10e60aff8f55e9477cc53791735a7ce2b851408e1eb5a144966fb30090565b90565b61366b61366661367092613654565b610de3565b61025d565b90565b61367d6002613657565b90565b61368861403a565b6136935f8201610f76565b6136ac6136a66136a1613673565b61025d565b9161025d565b146136c7576136c5905f6136be613673565b9101610e05565b565b5f633ee5aeb560e01b8152806136df600482016102a1565b0390fd5b6136f76136f26136fc92612bbb565b610de3565b61025d565b90565b61370960016136e3565b90565b61372761371761403a565b5f6137206136ff565b9101610e05565b565b613731611f09565b503390565b7f02dd7bc7dec4dceedda775e58dd541e08a116c6c53815c0bd028192f7b62680090565b61376c90613766613729565b90614081565b565b613776610d76565b5061377f613736565b61379361378d838590611f41565b15610201565b5f1461381e576137bd906137b85f6137b081600194018690611658565b018590611f2b565b6118c3565b906137c6613729565b906138036137fd6137f77f2f8788117e7eff1d82e926ec794901d17c78024a50270940304540a733656f0d9561164c565b926112d3565b926112d3565b9261380c6101a2565b80613816816102a1565b0390a4600190565b5050505f90565b61382d610d76565b50613836613736565b613841828490611f41565b5f146138cb5761386a906138655f61385d818094018690611658565b018590611f2b565b6118c3565b90613873613729565b906138b06138aa6138a47ff6391f5c32d9c69d2a47ea670b442974b53935d1edc7fd64eb21e047a839171b9561164c565b926112d3565b926112d3565b926138b96101a2565b806138c3816102a1565b0390a4600190565b5050505f90565b6138db906111f9565b90565b6138e7306138d2565b6139196139137f0000000000000000000000000000000000000000000000000000000000000000610412565b91610412565b148015613943575b61392757565b5f63703e46dd60e11b81528061393f600482016102a1565b0390fd5b5061394c6140bc565b61397e6139787f0000000000000000000000000000000000000000000000000000000000000000610412565b91610412565b1415613921565b5061398e6135e2565b565b61399990613985565b565b6139a4906111c5565b90565b6139b09061399b565b90565b6139bc906111f9565b90565b905051906139cc8261036f565b565b906020828203126139e7576139e4915f016139bf565b90565b6101ac565b9190613a1a6020613a046139ff866139a7565b6139b3565b6352d1902d90613a126101a2565b93849261121d565b82528180613a2a600482016102a1565b03915afa80915f92613aba575b50155f14613a6b575050906001613a4c57505b565b613a67905f918291634c9c8ce360e01b835260048301610748565b0390fd5b9283613a86613a80613a7b611a74565b61036c565b9161036c565b03613a9b57613a969293506140e6565b613a4a565b613ab6845f918291632a87526960e21b8352600483016103bd565b0390fd5b613adc91925060203d8111613ae3575b613ad4818361055d565b8101906139ce565b905f613a37565b503d613aca565b613af3306138d2565b613b25613b1f7f0000000000000000000000000000000000000000000000000000000000000000610412565b91610412565b03613b2c57565b5f63703e46dd60e11b815280613b44600482016102a1565b0390fd5b5f7f496e76616c6964206f726967696e616c20707269636500000000000000000000910152565b613b7c60166020926108d7565b613b8581613b48565b0190565b613b9e9060208101905f818303910152613b6f565b90565b15613ba857565b613bb06101a2565b62461bcd60e51b815280613bc660048201613b89565b0390fd5b613bd9613bdf91939293610987565b92610987565b91828103925f828512818312169285139112151617613bfa57565b610fa2565b90565b613c16613c11613c1b92613bff565b610de3565b610987565b90565b613c2d613c3391939293610987565b92610987565b91613c3f838202610987565b92600160ff1b81145f831216613c62578184051490151715613c5d57565b610fa2565b610fa2565b613c73613c7991610987565b91610987565b908115613c9b5760015f038214600160ff1b821416613c96570590565b610fa2565b612535565b613ce7613cd6613cec93613cb2611f73565b50613ccf84613cc9613cc35f612114565b91610987565b13613ba1565b8390613bca565b613ce1612710613c02565b90613c1e565b613c67565b90565b613d03613cfe613d0892613bff565b610de3565b61025d565b90565b613d1361239c565b50613d46613d35613d22613630565b92613d2f60048501610f76565b90612500565b613d40612710613cef565b90612549565b9081613d5a613d545f61105d565b9161025d565b11613d64575b5090565b613d7a613d755f613d7f93016111b8565b6111ed565b611205565b602063a9059cbb91613d8f613729565b90613dad5f8695613db8613da16101a2565b9788968795869461121d565b8452600484016124dd565b03925af18015613df857613dcc575b613d60565b613dec9060203d8111613df1575b613de4818361055d565b810190611232565b613dc7565b503d613dda565b611282565b613e0561239c565b50613e38613e27613e14613630565b92613e2160028501610f76565b90612500565b613e32612710613cef565b90612549565b9081613e4c613e465f61105d565b9161025d565b11613e56575b5090565b6020613e73613e6e613e695f85016111b8565b6111ed565b611205565b613e84600363a9059cbb94016111b8565b90613ea25f8695613ead613e966101a2565b9788968795869461121d565b8452600484016124dd565b03925af18015613eed57613ec1575b613e52565b613ee19060203d8111613ee6575b613ed9818361055d565b810190611232565b613ebc565b503d613ecf565b611282565b613efa613f5e565b613f12613f085f83016111b8565b915f849101612fc8565b90613f46613f407f8be0079c531659141344cd1fd0a4f28419497f9722a3daafe3b4186f6b6457e0936112d3565b916112d3565b91613f4f6101a2565b80613f59816102a1565b0390a3565b7f9016d09d72d40fdae2fd8ceac6b6234c7706214fd39c1cd1e609a0528c19930090565b613f8a611f73565b5080613f9e613f985f612114565b91610987565b12155f14613faa575b90565b613fb390611bde565b613fa7565b613fc06141ba565b90565b613fcb6141ce565b613fd3613fd5565b565b613fdd614230565b565b613fe7613fc3565b565b613ffa90613ff56141ce565b613ffc565b565b6140059061429f565b565b61401090613fe9565b565b61401a6141ce565b565b614024614012565b565b61402e6141ce565b565b614038614026565b565b7f9b779b17422d0df92223018b32b4d1fa46e071723d6817e2486d003becc55f0090565b91602061407f92949361407860408201965f83019061073b565b01906103b0565b565b90614096614090838390611f41565b15610201565b61409e575050565b6140b85f92839263e2517d3f60e01b84526004840161405e565b0390fd5b6140c4611f09565b506140df5f6140d96140d4611a74565b6142aa565b016111b8565b90565b5190565b906140f0826142ad565b8161411b7fbc7cd75a20ee27fd9adebab32041f755214dbc6bffa90cc0225b39da2e5c2d3b916112d3565b906141246101a2565b8061412e816102a1565b0390a261413a816140e2565b61414c6141465f61105d565b9161025d565b115f146141605761415c9161437d565b505b565b505061416a614302565b61415e565b90565b61418661418161418b9261416f565b6107cb565b61036c565b90565b6141b77ff0c57e16840df040f15088dc2f81fe391c3923bec73e23a9662efc9c229c6a00614172565b90565b6141c2611648565b506141cb61418e565b90565b6141df6141d96143ac565b15610201565b6141e557565b5f631afcd79f60e31b8152806141fd600482016102a1565b0390fd5b6142096141ce565b614211614213565b565b61422e61421e61403a565b5f6142276136ff565b9101610e05565b565b614238614201565b565b61424b906142466141ce565b61424d565b565b8061426861426261425d5f610ecc565b610412565b91610412565b146142785761427690613ef2565b565b61429b6142845f610ecc565b5f918291631e4fbdf760e01b835260048301610748565b0390fd5b6142a89061423a565b565b90565b803b6142c16142bb5f61105d565b9161025d565b146142e3576142e1905f6142db6142d6611a74565b6142aa565b01612fc8565b565b6142fe905f918291634c9c8ce360e01b835260048301610748565b0390fd5b3461431561430f5f61105d565b9161025d565b1161431c57565b5f63b398979f60e01b815280614334600482016102a1565b0390fd5b606090565b9061434f61434a8361059b565b610586565b918252565b3d5f1461436f576143643d61433d565b903d5f602084013e5b565b614377614338565b9061436d565b5f806143a99361438b614338565b508390602081019051915af4906143a0614354565b909190916143ca565b90565b6143b4610d76565b506143c75f6143c1613fb8565b01612b57565b90565b906143de906143d7614338565b5015610201565b5f146143ea575061444e565b6143f3826140e2565b6144056143ff5f61105d565b9161025d565b1480614433575b614414575090565b61442f905f918291639996b31560e01b835260048301610748565b0390fd5b50803b6144486144425f61105d565b9161025d565b1461440c565b614457816140e2565b6144696144635f61105d565b9161025d565b115f1461447857805190602001fd5b5f63d6bda27560e01b815280614490600482016102a1565b0390fdfea2646970667358221220d41a35074581c415dc81fc4abc7972a5df76d29b79575f28c82114a285bf793a64736f6c634300081c0033","linkReferences":{}},"methodIdentifiers":{"DEFAULT_ADMIN_ROLE()":"a217fddf","UPGRADE_INTERFACE_VERSION()":"ad3cb1cc","addConditionalSupportedAsset(address,address)":"402edf32","addMarket(address,int256,uint256)":"ea3878b7","collectWinnings(uint256)":"c22c57c7","getAssetPrice(address)":"b3596f07","getMarket(uint256)":"eb44fdd3","getRoleAdmin(bytes32)":"248a9ca3","getUsersMarketBet(uint256,address)":"f6cc7a31","grantRole(bytes32,address)":"2f2ff15d","hasRole(bytes32,address)":"91d14854","initialize(address,uint256,address,uint256)":"e24df754","isConditionalAssetSupported(address)":"b60b89c8","owner()":"8da5cb5b","placeBet(uint256,bool,uint256)":"1a38cac6","proxiableUUID()":"52d1902d","renounceOwnership()":"715018a6","renounceRole(bytes32,address)":"36568abe","resolveMarket(uint256)":"6399d03d","revokeRole(bytes32,address)":"d547741f","setHouseRakePercent(uint256)":"03d8f0c1","supportsInterface(bytes4)":"01ffc9a7","transferOwnership(address)":"f2fde38b","upgradeToAndCall(address,bytes)":"4f1ef286"},"id":2}